{
  "contractName": "ArticleMarket",
  "abi": [
    {
      "inputs": [
        {
          "internalType": "address",
          "name": "_tokenAddress",
          "type": "address"
        }
      ],
      "stateMutability": "nonpayable",
      "type": "constructor"
    },
    {
      "anonymous": false,
      "inputs": [
        {
          "indexed": true,
          "internalType": "uint256",
          "name": "articleId",
          "type": "uint256"
        },
        {
          "indexed": false,
          "internalType": "string",
          "name": "web2ArticleId",
          "type": "string"
        },
        {
          "indexed": false,
          "internalType": "string",
          "name": "title",
          "type": "string"
        },
        {
          "indexed": true,
          "internalType": "address",
          "name": "author",
          "type": "address"
        }
      ],
      "name": "ArticlePublished",
      "type": "event"
    },
    {
      "anonymous": false,
      "inputs": [
        {
          "indexed": true,
          "internalType": "address",
          "name": "tipper",
          "type": "address"
        },
        {
          "indexed": true,
          "internalType": "uint256",
          "name": "articleId",
          "type": "uint256"
        },
        {
          "indexed": false,
          "internalType": "uint256",
          "name": "amount",
          "type": "uint256"
        },
        {
          "indexed": true,
          "internalType": "address",
          "name": "author",
          "type": "address"
        }
      ],
      "name": "ArticleTipped",
      "type": "event"
    },
    {
      "anonymous": false,
      "inputs": [
        {
          "indexed": true,
          "internalType": "address",
          "name": "previousOwner",
          "type": "address"
        },
        {
          "indexed": true,
          "internalType": "address",
          "name": "newOwner",
          "type": "address"
        }
      ],
      "name": "OwnershipTransferred",
      "type": "event"
    },
    {
      "inputs": [],
      "name": "articleCount",
      "outputs": [
        {
          "internalType": "uint256",
          "name": "",
          "type": "uint256"
        }
      ],
      "stateMutability": "view",
      "type": "function",
      "constant": true
    },
    {
      "inputs": [
        {
          "internalType": "uint256",
          "name": "",
          "type": "uint256"
        }
      ],
      "name": "articles",
      "outputs": [
        {
          "internalType": "string",
          "name": "web2ArticleId",
          "type": "string"
        },
        {
          "internalType": "string",
          "name": "title",
          "type": "string"
        },
        {
          "internalType": "address",
          "name": "author",
          "type": "address"
        },
        {
          "internalType": "bool",
          "name": "isActive",
          "type": "bool"
        },
        {
          "internalType": "uint256",
          "name": "totalTips",
          "type": "uint256"
        }
      ],
      "stateMutability": "view",
      "type": "function",
      "constant": true
    },
    {
      "inputs": [
        {
          "internalType": "address",
          "name": "",
          "type": "address"
        },
        {
          "internalType": "uint256",
          "name": "",
          "type": "uint256"
        }
      ],
      "name": "authorArticles",
      "outputs": [
        {
          "internalType": "uint256",
          "name": "",
          "type": "uint256"
        }
      ],
      "stateMutability": "view",
      "type": "function",
      "constant": true
    },
    {
      "inputs": [],
      "name": "owner",
      "outputs": [
        {
          "internalType": "address",
          "name": "",
          "type": "address"
        }
      ],
      "stateMutability": "view",
      "type": "function",
      "constant": true
    },
    {
      "inputs": [],
      "name": "renounceOwnership",
      "outputs": [],
      "stateMutability": "nonpayable",
      "type": "function"
    },
    {
      "inputs": [
        {
          "internalType": "address",
          "name": "",
          "type": "address"
        },
        {
          "internalType": "uint256",
          "name": "",
          "type": "uint256"
        }
      ],
      "name": "tippedArticles",
      "outputs": [
        {
          "internalType": "bool",
          "name": "",
          "type": "bool"
        }
      ],
      "stateMutability": "view",
      "type": "function",
      "constant": true
    },
    {
      "inputs": [
        {
          "internalType": "address",
          "name": "newOwner",
          "type": "address"
        }
      ],
      "name": "transferOwnership",
      "outputs": [],
      "stateMutability": "nonpayable",
      "type": "function"
    },
    {
      "inputs": [
        {
          "internalType": "address",
          "name": "",
          "type": "address"
        },
        {
          "internalType": "uint256",
          "name": "",
          "type": "uint256"
        }
      ],
      "name": "userTippedArticleIds",
      "outputs": [
        {
          "internalType": "uint256",
          "name": "",
          "type": "uint256"
        }
      ],
      "stateMutability": "view",
      "type": "function",
      "constant": true
    },
    {
      "inputs": [
        {
          "internalType": "string",
          "name": "",
          "type": "string"
        }
      ],
      "name": "web2ToArticleId",
      "outputs": [
        {
          "internalType": "uint256",
          "name": "",
          "type": "uint256"
        }
      ],
      "stateMutability": "view",
      "type": "function",
      "constant": true
    },
    {
      "inputs": [],
      "name": "yiDengToken",
      "outputs": [
        {
          "internalType": "contract YiDengToken",
          "name": "",
          "type": "address"
        }
      ],
      "stateMutability": "view",
      "type": "function",
      "constant": true
    },
    {
      "inputs": [
        {
          "internalType": "string",
          "name": "web2ArticleId",
          "type": "string"
        },
        {
          "internalType": "string",
          "name": "title",
          "type": "string"
        }
      ],
      "name": "publishArticle",
      "outputs": [],
      "stateMutability": "nonpayable",
      "type": "function"
    },
    {
      "inputs": [
        {
          "internalType": "string",
          "name": "web2ArticleId",
          "type": "string"
        },
        {
          "internalType": "uint256",
          "name": "amount",
          "type": "uint256"
        }
      ],
      "name": "tipArticle",
      "outputs": [],
      "stateMutability": "nonpayable",
      "type": "function"
    },
    {
      "inputs": [
        {
          "internalType": "string",
          "name": "web2ArticleId",
          "type": "string"
        },
        {
          "internalType": "bool",
          "name": "isActive",
          "type": "bool"
        }
      ],
      "name": "setArticleStatus",
      "outputs": [],
      "stateMutability": "nonpayable",
      "type": "function"
    },
    {
      "inputs": [
        {
          "internalType": "string",
          "name": "web2ArticleId",
          "type": "string"
        }
      ],
      "name": "getArticleInfo",
      "outputs": [
        {
          "internalType": "string",
          "name": "",
          "type": "string"
        },
        {
          "internalType": "address",
          "name": "",
          "type": "address"
        },
        {
          "internalType": "bool",
          "name": "",
          "type": "bool"
        },
        {
          "internalType": "uint256",
          "name": "",
          "type": "uint256"
        }
      ],
      "stateMutability": "view",
      "type": "function",
      "constant": true
    },
    {
      "inputs": [
        {
          "internalType": "string",
          "name": "web2ArticleId",
          "type": "string"
        }
      ],
      "name": "articleExists",
      "outputs": [
        {
          "internalType": "bool",
          "name": "",
          "type": "bool"
        }
      ],
      "stateMutability": "view",
      "type": "function",
      "constant": true
    },
    {
      "inputs": [
        {
          "internalType": "address",
          "name": "author",
          "type": "address"
        }
      ],
      "name": "getAuthorArticleIds",
      "outputs": [
        {
          "internalType": "uint256[]",
          "name": "",
          "type": "uint256[]"
        }
      ],
      "stateMutability": "view",
      "type": "function",
      "constant": true
    },
    {
      "inputs": [
        {
          "internalType": "address",
          "name": "tipper",
          "type": "address"
        }
      ],
      "name": "getUserTippedArticleIds",
      "outputs": [
        {
          "internalType": "uint256[]",
          "name": "",
          "type": "uint256[]"
        }
      ],
      "stateMutability": "view",
      "type": "function",
      "constant": true
    }
  ],
  "bytecode": "0x608060405234801561001057600080fd5b506040516200176938038062001769833981016040819052610031916100cc565b610053610045640100000000610078810204565b64010000000061007c810204565b60018054600160a060020a031916600160a060020a03929092169190911790556100fc565b3390565b60008054600160a060020a03838116600160a060020a0319831681178455604051919092169283917f8be0079c531659141344cd1fd0a4f28419497f9722a3daafe3b4186f6b6457e09190a35050565b6000602082840312156100de57600080fd5b8151600160a060020a03811681146100f557600080fd5b9392505050565b61165d806200010c6000396000f3fe608060405234801561001057600080fd5b5060043610610127576000357c0100000000000000000000000000000000000000000000000000000000900480635e0fdf07116100bf57806395961f051161008e57806395961f05146102865780639d945dc414610299578063ec59567e146102ac578063edcfafe6146102bf578063f2fde38b146102e357600080fd5b80635e0fdf071461020c578063715018a61461022f5780637a742ea6146102375780638da5cb5b1461027557600080fd5b8063264c00e1116100fb578063264c00e1146101bd5780632fdec788146101d057806334254c70146101f0578063414e28b01461020357600080fd5b8062e72d2d1461012c5780630262232b1461016a578063101a3cc414610195578063200e144f146101a8575b600080fd5b61015761013a366004610fbd565b805160208183018101805160038252928201919093012091525481565b6040519081526020015b60405180910390f35b60015461017d90600160a060020a031681565b604051600160a060020a039091168152602001610161565b6101576101a336600461108a565b6102f6565b6101bb6101b63660046110fd565b610327565b005b6101bb6101cb366004611157565b610674565b6101e36101de3660046111ae565b610705565b60405161016191906111d0565b6101576101fe36600461108a565b610771565b61015760075481565b61021f61021a366004611214565b61078d565b604051610161949392919061129c565b6101bb610972565b61026561024536600461108a565b600560209081526000928352604080842090915290825290205460ff1681565b6040519015158152602001610161565b600054600160a060020a031661017d565b6101bb6102943660046112d4565b610986565b6102656102a7366004611214565b610c5b565b6101e36102ba3660046111ae565b610c89565b6102d26102cd366004611340565b610cf3565b604051610161959493929190611359565b6101bb6102f13660046111ae565b610e41565b6004602052816000526040600020818154811061031257600080fd5b90600052602060002001600091509150505481565b60006003848460405161033b9291906113a5565b9081526020016040518091039020549050600081116103785760405160e560020a62461bcd02815260040161036f906113b5565b60405180910390fd5b60008181526002602081905260409091209081015460a060020a900460ff166103e65760405160e560020a62461bcd02815260206004820152601260248201527f41727469636c65206e6f74206163746976650000000000000000000000000000604482015260640161036f565b6000831161045f5760405160e560020a62461bcd02815260206004820152602160248201527f54697020616d6f756e74206d7573742062652067726561746572207468616e2060448201527f3000000000000000000000000000000000000000000000000000000000000000606482015260840161036f565b600281015433600160a060020a03909116036104c05760405160e560020a62461bcd02815260206004820152601b60248201527f43616e6e6f742074697020796f7572206f776e2061727469636c650000000000604482015260640161036f565b60015460028201546040517f23b872dd000000000000000000000000000000000000000000000000000000008152336004820152600160a060020a039182166024820152604481018690529116906323b872dd906064016020604051808303816000875af1158015610536573d6000803e3d6000fd5b505050506040513d601f19601f8201168201806040525081019061055a91906113ec565b6105a95760405160e560020a62461bcd02815260206004820152600f60248201527f5472616e73666572206661696c65640000000000000000000000000000000000604482015260640161036f565b828160030160008282546105bd9190611438565b909155505033600090815260056020908152604080832085845290915290205460ff16610625573360008181526005602090815260408083208684528252808320805460ff191660019081179091559383526006825282208054938401815582529020018290555b6002810154604051848152600160a060020a0390911690839033907fbcd9ee82e691bcada711b796fd266c55690f58d941d3dad849e0b4cbbf8b59f99060200160405180910390a45050505050565b61067c610ed4565b6000600384846040516106909291906113a5565b9081526020016040518091039020549050600081116106c45760405160e560020a62461bcd02815260040161036f906113b5565b600090815260026020819052604090912001805491151560a060020a0274ff0000000000000000000000000000000000000000199092169190911790555050565b600160a060020a03811660009081526004602090815260409182902080548351818402810184019094528084526060939283018282801561076557602002820191906000526020600020905b815481526020019060010190808311610751575b50505050509050919050565b6006602052816000526040600020818154811061031257600080fd5b6060600080600080600387876040516107a79291906113a5565b9081526020016040518091039020549050600081116107db5760405160e560020a62461bcd02815260040161036f906113b5565b600081815260026020526040808220815160a081019092528054829082906108029061144b565b80601f016020809104026020016040519081016040528092919081815260200182805461082e9061144b565b801561087b5780601f106108505761010080835404028352916020019161087b565b820191906000526020600020905b81548152906001019060200180831161085e57829003601f168201915b505050505081526020016001820180546108949061144b565b80601f01602080910402602001604051908101604052809291908181526020018280546108c09061144b565b801561090d5780601f106108e25761010080835404028352916020019161090d565b820191906000526020600020905b8154815290600101906020018083116108f057829003601f168201915b50505091835250506002820154600160a060020a03811660208084019190915260a060020a90910460ff1615156040808401919091526003909301546060928301528301519183015190830151608090930151919b909a509198509650945050505050565b61097a610ed4565b6109846000610f31565b565b826109d65760405160e560020a62461bcd02815260206004820152601f60248201527f576562322061727469636c652049442063616e6e6f7420626520656d70747900604482015260640161036f565b600384846040516109e89291906113a5565b908152602001604051809103902054600014610a495760405160e560020a62461bcd02815260206004820152601660248201527f41727469636c6520616c72656164792065786973747300000000000000000000604482015260640161036f565b80610a995760405160e560020a62461bcd02815260206004820152601560248201527f5469746c652063616e6e6f7420626520656d7074790000000000000000000000604482015260640161036f565b60078054906000610aa98361149e565b91905055506040518060a0016040528085858080601f016020809104026020016040519081016040528093929190818152602001838380828437600092019190915250505090825250604080516020601f860181900481028201810190925284815291810191908590859081908401838280828437600092018290525093855250503360208085019190915260016040808601919091526060909401839052600754835260029052502081518190610b619082611506565b5060208201516001820190610b769082611506565b506040828101516002830180546060860151151560a060020a0274ffffffffffffffffffffffffffffffffffffffffff19909116600160a060020a03909316929092179190911790556080909201516003918201556007549151610bdd90879087906113a5565b908152604080519182900360209081018320939093553360008181526004855291822060078054825460018101845592855295909320019390935554907f9a80ed094427109ffe4fc44dde37f7068ea496b09f6c44489766856c471ddc0990610c4d9088908890889088906115f5565b60405180910390a350505050565b60008060038484604051610c709291906113a5565b9081526020016040518091039020541190505b92915050565b600160a060020a03811660009081526006602090815260409182902080548351818402810184019094528084526060939283018282801561076557602002820191906000526020600020908154815260200190600101908083116107515750505050509050919050565b600260205260009081526040902080548190610d0e9061144b565b80601f0160208091040260200160405190810160405280929190818152602001828054610d3a9061144b565b8015610d875780601f10610d5c57610100808354040283529160200191610d87565b820191906000526020600020905b815481529060010190602001808311610d6a57829003601f168201915b505050505090806001018054610d9c9061144b565b80601f0160208091040260200160405190810160405280929190818152602001828054610dc89061144b565b8015610e155780601f10610dea57610100808354040283529160200191610e15565b820191906000526020600020905b815481529060010190602001808311610df857829003601f168201915b5050505060028301546003909301549192600160a060020a0381169260a060020a90910460ff16915085565b610e49610ed4565b600160a060020a038116610ec85760405160e560020a62461bcd02815260206004820152602660248201527f4f776e61626c653a206e6577206f776e657220697320746865207a65726f206160448201527f6464726573730000000000000000000000000000000000000000000000000000606482015260840161036f565b610ed181610f31565b50565b600054600160a060020a031633146109845760405160e560020a62461bcd02815260206004820181905260248201527f4f776e61626c653a2063616c6c6572206973206e6f7420746865206f776e6572604482015260640161036f565b60008054600160a060020a0383811673ffffffffffffffffffffffffffffffffffffffff19831681178455604051919092169283917f8be0079c531659141344cd1fd0a4f28419497f9722a3daafe3b4186f6b6457e09190a35050565b7f4e487b7100000000000000000000000000000000000000000000000000000000600052604160045260246000fd5b600060208284031215610fcf57600080fd5b813567ffffffffffffffff80821115610fe757600080fd5b818401915084601f830112610ffb57600080fd5b81358181111561100d5761100d610f8e565b604051601f8201601f19908116603f0116810190838211818310171561103557611035610f8e565b8160405282815287602084870101111561104e57600080fd5b826020860160208301376000928101602001929092525095945050505050565b8035600160a060020a038116811461108557600080fd5b919050565b6000806040838503121561109d57600080fd5b6110a68361106e565b946020939093013593505050565b60008083601f8401126110c657600080fd5b50813567ffffffffffffffff8111156110de57600080fd5b6020830191508360208285010111156110f657600080fd5b9250929050565b60008060006040848603121561111257600080fd5b833567ffffffffffffffff81111561112957600080fd5b611135868287016110b4565b909790965060209590950135949350505050565b8015158114610ed157600080fd5b60008060006040848603121561116c57600080fd5b833567ffffffffffffffff81111561118357600080fd5b61118f868287016110b4565b90945092505060208401356111a381611149565b809150509250925092565b6000602082840312156111c057600080fd5b6111c98261106e565b9392505050565b6020808252825182820181905260009190848201906040850190845b81811015611208578351835292840192918401916001016111ec565b50909695505050505050565b6000806020838503121561122757600080fd5b823567ffffffffffffffff81111561123e57600080fd5b61124a858286016110b4565b90969095509350505050565b6000815180845260005b8181101561127c57602081850181015186830182015201611260565b506000602082860101526020601f19601f83011685010191505092915050565b6080815260006112af6080830187611256565b600160a060020a03959095166020830152509115156040830152606090910152919050565b600080600080604085870312156112ea57600080fd5b843567ffffffffffffffff8082111561130257600080fd5b61130e888389016110b4565b9096509450602087013591508082111561132757600080fd5b50611334878288016110b4565b95989497509550505050565b60006020828403121561135257600080fd5b5035919050565b60a08152600061136c60a0830188611256565b828103602084015261137e8188611256565b600160a060020a039690961660408401525050911515606083015260809091015292915050565b8183823760009101908152919050565b60208082526016908201527f41727469636c6520646f6573206e6f7420657869737400000000000000000000604082015260600190565b6000602082840312156113fe57600080fd5b81516111c981611149565b7f4e487b7100000000000000000000000000000000000000000000000000000000600052601160045260246000fd5b80820180821115610c8357610c83611409565b60028104600182168061145f57607f821691505b602082108103611498577f4e487b7100000000000000000000000000000000000000000000000000000000600052602260045260246000fd5b50919050565b6000600182016114b0576114b0611409565b5060010190565b601f821115611501576000818152602081206020601f860104810160208610156114de5750805b6020601f860104820191505b818110156114fd578281556001016114ea565b5050505b505050565b815167ffffffffffffffff81111561152057611520610f8e565b6115348161152e845461144b565b846114b7565b602080601f83116001811461156d57600084156115515750858301515b60028086026008870290910a60001904198216178655506114fd565b600085815260208120601f198616915b8281101561159c5788860151825594840194600190910190840161157d565b50858210156115bc57878501516008601f88160260020a60001904191681555b5050505050600202600101905550565b81835281816020850137506000828201602090810191909152601f909101601f19169091010190565b6040815260006116096040830186886115cc565b828103602084015261161c8185876115cc565b97965050505050505056fea2646970667358221220ddc4a7c409b8d7c448e4b85d9120ff077a5786aef7aa939cf72cd3cfa8fe316d64736f6c63430008140033",
  "immutableReferences": {},
  "source": "// SPDX-License-Identifier: MIT\npragma solidity ^0.8.20;\n\nimport \"@openzeppelin/contracts/access/Ownable.sol\";\nimport \"@openzeppelin/contracts/utils/Strings.sol\";\nimport \"./YiDengToken.sol\";\n\n/**\n * @title ArticleMarket\n * @notice \n */\ncontract ArticleMarket is Ownable {\n    // \n    YiDengToken public yiDengToken;\n\n    // \n    struct Article {\n        string web2ArticleId; // Web2ID\n        string title; // \n        address author; // \n        bool isActive; // \n        uint256 totalTips; // (YD)\n    }\n\n    // \n    mapping(uint256 => Article) public articles; // articleId => Article\n    mapping(string => uint256) public web2ToArticleId; // web2ArticleId => articleId\n    mapping(address => uint256[]) public authorArticles; // author => ID\n    mapping(address => mapping(uint256 => bool)) public tippedArticles; // tipper => articleId => \n    mapping(address => uint256[]) public userTippedArticleIds; // tipper => ID\n    uint256 public articleCount; // \n\n    // \n    event ArticlePublished(\n        uint256 indexed articleId,\n        string web2ArticleId,\n        string title,\n        address indexed author\n    );\n    event ArticleTipped(\n        address indexed tipper,\n        uint256 indexed articleId,\n        uint256 amount,\n        address indexed author\n    );\n\n    constructor(address _tokenAddress) {\n        yiDengToken = YiDengToken(payable(_tokenAddress));\n    }\n\n    function publishArticle(string calldata web2ArticleId, string calldata title) external {\n        require(bytes(web2ArticleId).length > 0, \"Web2 article ID cannot be empty\");\n        require(web2ToArticleId[web2ArticleId] == 0, \"Article already exists\");\n        require(bytes(title).length > 0, \"Title cannot be empty\");\n\n        articleCount++;\n\n        articles[articleCount] = Article({\n            web2ArticleId: web2ArticleId,\n            title: title,\n            author: msg.sender,\n            isActive: true,\n            totalTips: 0\n        });\n\n        web2ToArticleId[web2ArticleId] = articleCount;\n        authorArticles[msg.sender].push(articleCount); // ID\n\n        emit ArticlePublished(articleCount, web2ArticleId, title, msg.sender);\n    }\n\n    function tipArticle(string calldata web2ArticleId, uint256 amount) external {\n        uint256 articleId = web2ToArticleId[web2ArticleId];\n        require(articleId > 0, \"Article does not exist\");\n\n        Article storage article = articles[articleId];\n        require(article.isActive, \"Article not active\");\n        require(amount > 0, \"Tip amount must be greater than 0\");\n        require(article.author != msg.sender, \"Cannot tip your own article\");\n\n        require(yiDengToken.transferFrom(msg.sender, article.author, amount), \"Transfer failed\");\n\n        article.totalTips += amount;\n        \n        // \n        if (!tippedArticles[msg.sender][articleId]) {\n            tippedArticles[msg.sender][articleId] = true;\n            userTippedArticleIds[msg.sender].push(articleId);\n        }\n\n        emit ArticleTipped(msg.sender, articleId, amount, article.author);\n    }\n\n    function setArticleStatus(string calldata web2ArticleId, bool isActive) external onlyOwner {\n        uint256 articleId = web2ToArticleId[web2ArticleId];\n        require(articleId > 0, \"Article does not exist\");\n        articles[articleId].isActive = isActive;\n    }\n\n    function getArticleInfo(string calldata web2ArticleId)\n        external view returns (string memory, address, bool, uint256) {\n        uint256 articleId = web2ToArticleId[web2ArticleId];\n        require(articleId > 0, \"Article does not exist\");\n        Article memory article = articles[articleId];\n        return (article.title, article.author, article.isActive, article.totalTips);\n    }\n\n    function articleExists(string calldata web2ArticleId) external view returns (bool) {\n        return web2ToArticleId[web2ArticleId] > 0;\n    }\n\n    /**\n     * @notice ID\n     * @param author \n     * @return uint256[] ID\n     */\n    function getAuthorArticleIds(address author) external view returns (uint256[] memory) {\n        return authorArticles[author];\n    }\n\n    /**\n     * @notice ID\n     * @param tipper \n     * @return uint256[] ID\n     */\n    function getUserTippedArticleIds(address tipper) external view returns (uint256[] memory) {\n        return userTippedArticleIds[tipper];\n    }\n}",
  "sourcePath": "D:\\project\\DApp\\web3\\web3-university-contract-local\\contracts\\ArticleMarket.sol",
  "compiler": {
    "name": "solc",
    "version": "0.8.20+commit.a1b79de6.Emscripten.clang"
  },
  "schemaVersion": "3.4.16",
  "updatedAt": "2025-04-09T06:34:29.709Z",
  "networkType": "ethereum",
  "devdoc": {
    "kind": "dev",
    "methods": {
      "getAuthorArticleIds(address)": {
        "params": {
          "author": ""
        },
        "returns": {
          "_0": "uint256[] ID"
        }
      },
      "getUserTippedArticleIds(address)": {
        "params": {
          "tipper": ""
        },
        "returns": {
          "_0": "uint256[] ID"
        }
      },
      "owner()": {
        "details": "Returns the address of the current owner."
      },
      "renounceOwnership()": {
        "details": "Leaves the contract without owner. It will not be possible to call `onlyOwner` functions. Can only be called by the current owner. NOTE: Renouncing ownership will leave the contract without an owner, thereby disabling any functionality that is only available to the owner."
      },
      "transferOwnership(address)": {
        "details": "Transfers ownership of the contract to a new account (`newOwner`). Can only be called by the current owner."
      }
    },
    "title": "ArticleMarket",
    "version": 1
  },
  "userdoc": {
    "kind": "user",
    "methods": {
      "getAuthorArticleIds(address)": {
        "notice": "ID"
      },
      "getUserTippedArticleIds(address)": {
        "notice": "ID"
      }
    },
    "notice": "",
    "version": 1
  }
}