{
  "contractName": "YiDengToken",
  "abi": [
    {
      "inputs": [],
      "stateMutability": "nonpayable",
      "type": "constructor"
    },
    {
      "anonymous": false,
      "inputs": [
        {
          "indexed": true,
          "internalType": "address",
          "name": "owner",
          "type": "address"
        },
        {
          "indexed": true,
          "internalType": "address",
          "name": "spender",
          "type": "address"
        },
        {
          "indexed": false,
          "internalType": "uint256",
          "name": "value",
          "type": "uint256"
        }
      ],
      "name": "Approval",
      "type": "event"
    },
    {
      "anonymous": false,
      "inputs": [
        {
          "indexed": false,
          "internalType": "address",
          "name": "teamWallet",
          "type": "address"
        },
        {
          "indexed": false,
          "internalType": "address",
          "name": "marketingWallet",
          "type": "address"
        },
        {
          "indexed": false,
          "internalType": "address",
          "name": "communityWallet",
          "type": "address"
        }
      ],
      "name": "InitialDistributionCompleted",
      "type": "event"
    },
    {
      "anonymous": false,
      "inputs": [
        {
          "indexed": true,
          "internalType": "address",
          "name": "previousOwner",
          "type": "address"
        },
        {
          "indexed": true,
          "internalType": "address",
          "name": "newOwner",
          "type": "address"
        }
      ],
      "name": "OwnershipTransferred",
      "type": "event"
    },
    {
      "anonymous": false,
      "inputs": [
        {
          "indexed": true,
          "internalType": "address",
          "name": "buyer",
          "type": "address"
        },
        {
          "indexed": false,
          "internalType": "uint256",
          "name": "ethAmount",
          "type": "uint256"
        },
        {
          "indexed": false,
          "internalType": "uint256",
          "name": "tokenAmount",
          "type": "uint256"
        }
      ],
      "name": "TokensPurchased",
      "type": "event"
    },
    {
      "anonymous": false,
      "inputs": [
        {
          "indexed": true,
          "internalType": "address",
          "name": "seller",
          "type": "address"
        },
        {
          "indexed": false,
          "internalType": "uint256",
          "name": "tokenAmount",
          "type": "uint256"
        },
        {
          "indexed": false,
          "internalType": "uint256",
          "name": "ethAmount",
          "type": "uint256"
        }
      ],
      "name": "TokensSold",
      "type": "event"
    },
    {
      "anonymous": false,
      "inputs": [
        {
          "indexed": true,
          "internalType": "address",
          "name": "from",
          "type": "address"
        },
        {
          "indexed": true,
          "internalType": "address",
          "name": "to",
          "type": "address"
        },
        {
          "indexed": false,
          "internalType": "uint256",
          "name": "value",
          "type": "uint256"
        }
      ],
      "name": "Transfer",
      "type": "event"
    },
    {
      "anonymous": false,
      "inputs": [
        {
          "indexed": true,
          "internalType": "uint256",
          "name": "withdrawalId",
          "type": "uint256"
        },
        {
          "indexed": false,
          "internalType": "uint256",
          "name": "amount",
          "type": "uint256"
        },
        {
          "indexed": false,
          "internalType": "address",
          "name": "recipient",
          "type": "address"
        }
      ],
      "name": "WithdrawalExecuted",
      "type": "event"
    },
    {
      "anonymous": false,
      "inputs": [
        {
          "indexed": true,
          "internalType": "uint256",
          "name": "withdrawalId",
          "type": "uint256"
        },
        {
          "indexed": false,
          "internalType": "uint256",
          "name": "amount",
          "type": "uint256"
        },
        {
          "indexed": false,
          "internalType": "address",
          "name": "recipient",
          "type": "address"
        }
      ],
      "name": "WithdrawalRequested",
      "type": "event"
    },
    {
      "anonymous": false,
      "inputs": [
        {
          "indexed": true,
          "internalType": "uint256",
          "name": "withdrawalId",
          "type": "uint256"
        },
        {
          "indexed": false,
          "internalType": "address",
          "name": "signer",
          "type": "address"
        }
      ],
      "name": "WithdrawalSigned",
      "type": "event"
    },
    {
      "stateMutability": "payable",
      "type": "fallback",
      "payable": true
    },
    {
      "inputs": [],
      "name": "MAX_SUPPLY",
      "outputs": [
        {
          "internalType": "uint256",
          "name": "",
          "type": "uint256"
        }
      ],
      "stateMutability": "view",
      "type": "function",
      "constant": true
    },
    {
      "inputs": [],
      "name": "TOKENS_PER_ETH",
      "outputs": [
        {
          "internalType": "uint256",
          "name": "",
          "type": "uint256"
        }
      ],
      "stateMutability": "view",
      "type": "function",
      "constant": true
    },
    {
      "inputs": [
        {
          "internalType": "address",
          "name": "owner",
          "type": "address"
        },
        {
          "internalType": "address",
          "name": "spender",
          "type": "address"
        }
      ],
      "name": "allowance",
      "outputs": [
        {
          "internalType": "uint256",
          "name": "",
          "type": "uint256"
        }
      ],
      "stateMutability": "view",
      "type": "function",
      "constant": true
    },
    {
      "inputs": [
        {
          "internalType": "address",
          "name": "spender",
          "type": "address"
        },
        {
          "internalType": "uint256",
          "name": "amount",
          "type": "uint256"
        }
      ],
      "name": "approve",
      "outputs": [
        {
          "internalType": "bool",
          "name": "",
          "type": "bool"
        }
      ],
      "stateMutability": "nonpayable",
      "type": "function"
    },
    {
      "inputs": [
        {
          "internalType": "address",
          "name": "account",
          "type": "address"
        }
      ],
      "name": "balanceOf",
      "outputs": [
        {
          "internalType": "uint256",
          "name": "",
          "type": "uint256"
        }
      ],
      "stateMutability": "view",
      "type": "function",
      "constant": true
    },
    {
      "inputs": [],
      "name": "communityAllocation",
      "outputs": [
        {
          "internalType": "uint256",
          "name": "",
          "type": "uint256"
        }
      ],
      "stateMutability": "view",
      "type": "function",
      "constant": true
    },
    {
      "inputs": [
        {
          "internalType": "address",
          "name": "spender",
          "type": "address"
        },
        {
          "internalType": "uint256",
          "name": "subtractedValue",
          "type": "uint256"
        }
      ],
      "name": "decreaseAllowance",
      "outputs": [
        {
          "internalType": "bool",
          "name": "",
          "type": "bool"
        }
      ],
      "stateMutability": "nonpayable",
      "type": "function"
    },
    {
      "inputs": [
        {
          "internalType": "address",
          "name": "spender",
          "type": "address"
        },
        {
          "internalType": "uint256",
          "name": "addedValue",
          "type": "uint256"
        }
      ],
      "name": "increaseAllowance",
      "outputs": [
        {
          "internalType": "bool",
          "name": "",
          "type": "bool"
        }
      ],
      "stateMutability": "nonpayable",
      "type": "function"
    },
    {
      "inputs": [],
      "name": "initialDistributionDone",
      "outputs": [
        {
          "internalType": "bool",
          "name": "",
          "type": "bool"
        }
      ],
      "stateMutability": "view",
      "type": "function",
      "constant": true
    },
    {
      "inputs": [],
      "name": "marketingAllocation",
      "outputs": [
        {
          "internalType": "uint256",
          "name": "",
          "type": "uint256"
        }
      ],
      "stateMutability": "view",
      "type": "function",
      "constant": true
    },
    {
      "inputs": [],
      "name": "name",
      "outputs": [
        {
          "internalType": "string",
          "name": "",
          "type": "string"
        }
      ],
      "stateMutability": "view",
      "type": "function",
      "constant": true
    },
    {
      "inputs": [],
      "name": "owner",
      "outputs": [
        {
          "internalType": "address",
          "name": "",
          "type": "address"
        }
      ],
      "stateMutability": "view",
      "type": "function",
      "constant": true
    },
    {
      "inputs": [],
      "name": "renounceOwnership",
      "outputs": [],
      "stateMutability": "nonpayable",
      "type": "function"
    },
    {
      "inputs": [],
      "name": "requiredSignatures",
      "outputs": [
        {
          "internalType": "uint256",
          "name": "",
          "type": "uint256"
        }
      ],
      "stateMutability": "view",
      "type": "function",
      "constant": true
    },
    {
      "inputs": [
        {
          "internalType": "uint256",
          "name": "",
          "type": "uint256"
        }
      ],
      "name": "signers",
      "outputs": [
        {
          "internalType": "address",
          "name": "",
          "type": "address"
        }
      ],
      "stateMutability": "view",
      "type": "function",
      "constant": true
    },
    {
      "inputs": [],
      "name": "symbol",
      "outputs": [
        {
          "internalType": "string",
          "name": "",
          "type": "string"
        }
      ],
      "stateMutability": "view",
      "type": "function",
      "constant": true
    },
    {
      "inputs": [],
      "name": "teamAllocation",
      "outputs": [
        {
          "internalType": "uint256",
          "name": "",
          "type": "uint256"
        }
      ],
      "stateMutability": "view",
      "type": "function",
      "constant": true
    },
    {
      "inputs": [],
      "name": "totalSupply",
      "outputs": [
        {
          "internalType": "uint256",
          "name": "",
          "type": "uint256"
        }
      ],
      "stateMutability": "view",
      "type": "function",
      "constant": true
    },
    {
      "inputs": [
        {
          "internalType": "address",
          "name": "to",
          "type": "address"
        },
        {
          "internalType": "uint256",
          "name": "amount",
          "type": "uint256"
        }
      ],
      "name": "transfer",
      "outputs": [
        {
          "internalType": "bool",
          "name": "",
          "type": "bool"
        }
      ],
      "stateMutability": "nonpayable",
      "type": "function"
    },
    {
      "inputs": [
        {
          "internalType": "address",
          "name": "from",
          "type": "address"
        },
        {
          "internalType": "address",
          "name": "to",
          "type": "address"
        },
        {
          "internalType": "uint256",
          "name": "amount",
          "type": "uint256"
        }
      ],
      "name": "transferFrom",
      "outputs": [
        {
          "internalType": "bool",
          "name": "",
          "type": "bool"
        }
      ],
      "stateMutability": "nonpayable",
      "type": "function"
    },
    {
      "inputs": [
        {
          "internalType": "address",
          "name": "newOwner",
          "type": "address"
        }
      ],
      "name": "transferOwnership",
      "outputs": [],
      "stateMutability": "nonpayable",
      "type": "function"
    },
    {
      "inputs": [],
      "name": "withdrawalId",
      "outputs": [
        {
          "internalType": "uint256",
          "name": "",
          "type": "uint256"
        }
      ],
      "stateMutability": "view",
      "type": "function",
      "constant": true
    },
    {
      "inputs": [
        {
          "internalType": "uint256",
          "name": "",
          "type": "uint256"
        }
      ],
      "name": "withdrawalRequests",
      "outputs": [
        {
          "internalType": "uint256",
          "name": "amount",
          "type": "uint256"
        },
        {
          "internalType": "uint256",
          "name": "signatureCount",
          "type": "uint256"
        },
        {
          "internalType": "address",
          "name": "recipient",
          "type": "address"
        },
        {
          "internalType": "bool",
          "name": "executed",
          "type": "bool"
        }
      ],
      "stateMutability": "view",
      "type": "function",
      "constant": true
    },
    {
      "stateMutability": "payable",
      "type": "receive",
      "payable": true
    },
    {
      "inputs": [],
      "name": "decimals",
      "outputs": [
        {
          "internalType": "uint8",
          "name": "",
          "type": "uint8"
        }
      ],
      "stateMutability": "view",
      "type": "function",
      "constant": true
    },
    {
      "inputs": [
        {
          "internalType": "address",
          "name": "teamWallet",
          "type": "address"
        },
        {
          "internalType": "address",
          "name": "marketingWallet",
          "type": "address"
        },
        {
          "internalType": "address",
          "name": "communityWallet",
          "type": "address"
        }
      ],
      "name": "distributeInitialTokens",
      "outputs": [],
      "stateMutability": "nonpayable",
      "type": "function"
    },
    {
      "inputs": [],
      "name": "buyWithETH",
      "outputs": [],
      "stateMutability": "payable",
      "type": "function",
      "payable": true
    },
    {
      "inputs": [
        {
          "internalType": "uint256",
          "name": "tokenAmount",
          "type": "uint256"
        }
      ],
      "name": "sellTokens",
      "outputs": [],
      "stateMutability": "nonpayable",
      "type": "function"
    },
    {
      "inputs": [],
      "name": "remainingMintableSupply",
      "outputs": [
        {
          "internalType": "uint256",
          "name": "",
          "type": "uint256"
        }
      ],
      "stateMutability": "view",
      "type": "function",
      "constant": true
    },
    {
      "inputs": [
        {
          "internalType": "address",
          "name": "newSigner",
          "type": "address"
        }
      ],
      "name": "addSigner",
      "outputs": [],
      "stateMutability": "nonpayable",
      "type": "function"
    },
    {
      "inputs": [
        {
          "internalType": "address",
          "name": "signerToRemove",
          "type": "address"
        }
      ],
      "name": "removeSigner",
      "outputs": [],
      "stateMutability": "nonpayable",
      "type": "function"
    },
    {
      "inputs": [
        {
          "internalType": "uint256",
          "name": "newRequiredSignatures",
          "type": "uint256"
        }
      ],
      "name": "updateRequiredSignatures",
      "outputs": [],
      "stateMutability": "nonpayable",
      "type": "function"
    },
    {
      "inputs": [
        {
          "internalType": "uint256",
          "name": "amount",
          "type": "uint256"
        },
        {
          "internalType": "address",
          "name": "recipient",
          "type": "address"
        }
      ],
      "name": "requestWithdrawal",
      "outputs": [],
      "stateMutability": "nonpayable",
      "type": "function"
    },
    {
      "inputs": [
        {
          "internalType": "uint256",
          "name": "requestId",
          "type": "uint256"
        }
      ],
      "name": "signWithdrawal",
      "outputs": [],
      "stateMutability": "nonpayable",
      "type": "function"
    },
    {
      "inputs": [],
      "name": "getSignerCount",
      "outputs": [
        {
          "internalType": "uint256",
          "name": "",
          "type": "uint256"
        }
      ],
      "stateMutability": "view",
      "type": "function",
      "constant": true
    },
    {
      "inputs": [
        {
          "internalType": "address",
          "name": "account",
          "type": "address"
        }
      ],
      "name": "isSigner",
      "outputs": [
        {
          "internalType": "bool",
          "name": "",
          "type": "bool"
        }
      ],
      "stateMutability": "view",
      "type": "function",
      "constant": true
    },
    {
      "inputs": [
        {
          "internalType": "uint256",
          "name": "requestId",
          "type": "uint256"
        },
        {
          "internalType": "address",
          "name": "signer",
          "type": "address"
        }
      ],
      "name": "hasSignedWithdrawal",
      "outputs": [
        {
          "internalType": "bool",
          "name": "",
          "type": "bool"
        }
      ],
      "stateMutability": "view",
      "type": "function",
      "constant": true
    }
  ],
  "bytecode": "0x60806040523480156200001157600080fd5b506040518060400160405280600c81526020017f596944656e6720546f6b656e00000000000000000000000000000000000000008152506040518060400160405280600281526020017f594400000000000000000000000000000000000000000000000000000000000081525081600390816200008f919062000507565b508060049081620000a1919062000507565b505050620000d6620000c1620001b9640100000000026401000000009004565b620001c1640100000000026401000000009004565b60646014621312d0620000ea91906200061d565b620000f6919062000697565b6006819055506064600a621312d06200011091906200061d565b6200011c919062000697565b6007819055506064600a621312d06200013691906200061d565b62000142919062000697565b600881905550600a339080600181540180825580915050600190039060005260206000200160009091909190916101000a81548173ffffffffffffffffffffffffffffffffffffffff021916908373ffffffffffffffffffffffffffffffffffffffff1602179055506001600b81905550620006cf565b600033905090565b6000600560009054906101000a900473ffffffffffffffffffffffffffffffffffffffff16905081600560006101000a81548173ffffffffffffffffffffffffffffffffffffffff021916908373ffffffffffffffffffffffffffffffffffffffff1602179055508173ffffffffffffffffffffffffffffffffffffffff168173ffffffffffffffffffffffffffffffffffffffff167f8be0079c531659141344cd1fd0a4f28419497f9722a3daafe3b4186f6b6457e060405160405180910390a35050565b600081519050919050565b7f4e487b7100000000000000000000000000000000000000000000000000000000600052604160045260246000fd5b7f4e487b7100000000000000000000000000000000000000000000000000000000600052602260045260246000fd5b600060028204905060018216806200030957607f821691505b6020821081036200031f576200031e620002c1565b5b50919050565b60008190508160005260206000209050919050565b60006020601f8301049050919050565b60008160020a8302905092915050565b6000600883026200038c7fffffffffffffffffffffffffffffffffffffffffffffffffffffffffffffffff826200034a565b6200039886836200034a565b95508019841693508086168417925050509392505050565b6000819050919050565b6000819050919050565b6000620003e5620003df620003d984620003b0565b620003ba565b620003b0565b9050919050565b6000819050919050565b6200040183620003c4565b620004196200041082620003ec565b8484546200035a565b825550505050565b600090565b6200043062000421565b6200043d818484620003f6565b505050565b5b8181101562000465576200045960008262000426565b60018101905062000443565b5050565b601f821115620004b4576200047e8162000325565b62000489846200033a565b8101602085101562000499578190505b620004b1620004a8856200033a565b83018262000442565b50505b505050565b60008160020a8304905092915050565b6000620004dc60001984600802620004b9565b1980831691505092915050565b6000620004f78383620004c9565b9150826002028217905092915050565b620005128262000287565b67ffffffffffffffff8111156200052e576200052d62000292565b5b6200053a8254620002f0565b6200054782828562000469565b600060209050601f8311600181146200057f57600084156200056a578287015190505b620005768582620004e9565b865550620005e6565b601f1984166200058f8662000325565b60005b82811015620005b95784890151825560018201915060208501945060208101905062000592565b86831015620005d95784890151620005d5601f891682620004c9565b8355505b6001600288020188555050505b505050505050565b7f4e487b7100000000000000000000000000000000000000000000000000000000600052601160045260246000fd5b60006200062a82620003b0565b91506200063783620003b0565b92508282026200064781620003b0565b91508282048414831517620006615762000660620005ee565b5b5092915050565b7f4e487b7100000000000000000000000000000000000000000000000000000000600052601260045260246000fd5b6000620006a482620003b0565b9150620006b183620003b0565b925082620006c457620006c362000668565b5b828204905092915050565b613f4080620006df6000396000f3fe608060405260043610610230576000357c01000000000000000000000000000000000000000000000000000000009004806370a0823111610135578063a9059cbb116100bd578063dca7bbe61161008c578063dca7bbe6146107d4578063dd62ed3e14610811578063e492c5a91461084e578063eb12d61e14610877578063f2fde38b146108a057610237565b8063a9059cbb14610716578063b715be8114610753578063bc6e66041461077e578063d53b4ab4146107a957610237565b80638d068043116101045780638d068043146106185780638da5cb5b14610643578063937b25811461066e57806395d89b41146106ae578063a457c2d7146106d957610237565b806370a082311461055e578063715018a61461059b5780637dcf975a146105b25780637df73e27146105db57610237565b806321739779116101b8578063349f0b9011610187578063349f0b901461047757806339509351146104a257806352cda148146104df5780636816521a1461050a5780636c11bcd31461053557610237565b806321739779146103bb57806323b872dd146103e4578063313ce5671461042157806332cb6b0c1461044c57610237565b80630e316ab7116101ff5780630e316ab7146102f5578063150d283d1461031e57806315f0c2201461032857806318160ddd146103535780632079fb9a1461037e57610237565b80630535ec771461023957806306fdde0314610264578063095ea7b31461028f5780630d60432e146102cc57610237565b3661023757005b005b34801561024557600080fd5b5061024e6108c9565b60405161025b919061292a565b60405180910390f35b34801561027057600080fd5b506102796108dc565b60405161028691906129d5565b60405180910390f35b34801561029b57600080fd5b506102b660048036038101906102b19190612a90565b61096e565b6040516102c3919061292a565b60405180910390f35b3480156102d857600080fd5b506102f360048036038101906102ee9190612ad0565b610991565b005b34801561030157600080fd5b5061031c60048036038101906103179190612afd565b610a2e565b005b610326610c64565b005b34801561033457600080fd5b5061033d610d81565b60405161034a9190612b39565b60405180910390f35b34801561035f57600080fd5b50610368610d87565b6040516103759190612b39565b60405180910390f35b34801561038a57600080fd5b506103a560048036038101906103a09190612ad0565b610d91565b6040516103b29190612b63565b60405180910390f35b3480156103c757600080fd5b506103e260048036038101906103dd9190612b7e565b610dd0565b005b3480156103f057600080fd5b5061040b60048036038101906104069190612bbe565b61114d565b604051610418919061292a565b60405180910390f35b34801561042d57600080fd5b5061043661117c565b6040516104439190612c2d565b60405180910390f35b34801561045857600080fd5b50610461611181565b60405161046e9190612b39565b60405180910390f35b34801561048357600080fd5b5061048c611188565b6040516104999190612b39565b60405180910390f35b3480156104ae57600080fd5b506104c960048036038101906104c49190612a90565b6111a5565b6040516104d6919061292a565b60405180910390f35b3480156104eb57600080fd5b506104f46111dc565b6040516105019190612b39565b60405180910390f35b34801561051657600080fd5b5061051f6111e2565b60405161052c9190612b39565b60405180910390f35b34801561054157600080fd5b5061055c60048036038101906105579190612ad0565b6111e8565b005b34801561056a57600080fd5b5061058560048036038101906105809190612afd565b6113ed565b6040516105929190612b39565b60405180910390f35b3480156105a757600080fd5b506105b0611435565b005b3480156105be57600080fd5b506105d960048036038101906105d49190612ad0565b611449565b005b3480156105e757600080fd5b5061060260048036038101906105fd9190612afd565b6116ea565b60405161060f919061292a565b60405180910390f35b34801561062457600080fd5b5061062d611798565b60405161063a9190612b39565b60405180910390f35b34801561064f57600080fd5b5061065861179e565b6040516106659190612b63565b60405180910390f35b34801561067a57600080fd5b5061069560048036038101906106909190612ad0565b6117c8565b6040516106a59493929190612c48565b60405180910390f35b3480156106ba57600080fd5b506106c3611825565b6040516106d091906129d5565b60405180910390f35b3480156106e557600080fd5b5061070060048036038101906106fb9190612a90565b6118b7565b60405161070d919061292a565b60405180910390f35b34801561072257600080fd5b5061073d60048036038101906107389190612a90565b61192e565b60405161074a919061292a565b60405180910390f35b34801561075f57600080fd5b50610768611951565b6040516107759190612b39565b60405180910390f35b34801561078a57600080fd5b5061079361195e565b6040516107a09190612b39565b60405180910390f35b3480156107b557600080fd5b506107be611964565b6040516107cb9190612b39565b60405180910390f35b3480156107e057600080fd5b506107fb60048036038101906107f69190612b7e565b61196a565b604051610808919061292a565b60405180910390f35b34801561081d57600080fd5b5061083860048036038101906108339190612c8d565b6119d5565b6040516108459190612b39565b60405180910390f35b34801561085a57600080fd5b5061087560048036038101906108709190612ccd565b611a5c565b005b34801561088357600080fd5b5061089e60048036038101906108999190612afd565b611b33565b005b3480156108ac57600080fd5b506108c760048036038101906108c29190612afd565b611ce0565b005b600960009054906101000a900460ff1681565b6060600380546108eb90612d4f565b80601f016020809104026020016040519081016040528092919081815260200182805461091790612d4f565b80156109645780601f1061093957610100808354040283529160200191610964565b820191906000526020600020905b81548152906001019060200180831161094757829003601f168201915b5050505050905090565b600080610979611d63565b9050610986818585611d6b565b600191505092915050565b610999611f34565b600081116109dc576040517f08c379a00000000000000000000000000000000000000000000000000000000081526004016109d390612df2565b60405180910390fd5b600a80549050811115610a24576040517f08c379a0000000000000000000000000000000000000000000000000000000008152600401610a1b90612e84565b60405180910390fd5b80600b8190555050565b610a36611f34565b600b54600a8054905011610a7f576040517f08c379a0000000000000000000000000000000000000000000000000000000008152600401610a7690612ef0565b60405180910390fd5b6000600a80549050905060005b600a80549050811015610b25578273ffffffffffffffffffffffffffffffffffffffff16600a8281548110610ac457610ac3612f10565b5b9060005260206000200160009054906101000a900473ffffffffffffffffffffffffffffffffffffffff1673ffffffffffffffffffffffffffffffffffffffff1603610b1257809150610b25565b8080610b1d90612f6e565b915050610a8c565b50600a805490508110610b6d576040517f08c379a0000000000000000000000000000000000000000000000000000000008152600401610b6490613002565b60405180910390fd5b600a6001600a80549050610b819190613022565b81548110610b9257610b91612f10565b5b9060005260206000200160009054906101000a900473ffffffffffffffffffffffffffffffffffffffff16600a8281548110610bd157610bd0612f10565b5b9060005260206000200160006101000a81548173ffffffffffffffffffffffffffffffffffffffff021916908373ffffffffffffffffffffffffffffffffffffffff160217905550600a805480610c2b57610c2a613056565b5b6001900381819060005260206000200160006101000a81549073ffffffffffffffffffffffffffffffffffffffff021916905590555050565b60003411610ca7576040517f08c379a0000000000000000000000000000000000000000000000000000000008152600401610c9e906130d1565b60405180910390fd5b6000670de0b6b3a76400006103e834610cc091906130f1565b610cca9190613162565b9050621312d081610cd9610d87565b610ce39190613193565b1115610d24576040517f08c379a0000000000000000000000000000000000000000000000000000000008152600401610d1b90613213565b60405180910390fd5b610d2e3382611fb2565b3373ffffffffffffffffffffffffffffffffffffffff167f8fafebcaf9d154343dad25669bfa277f4fbacd7ac6b0c4fed522580e040a0f333483604051610d76929190613233565b60405180910390a250565b60075481565b6000600254905090565b600a8181548110610da157600080fd5b906000526020600020016000915054906101000a900473ffffffffffffffffffffffffffffffffffffffff1681565b6000805b600a80549050811015610e6e573373ffffffffffffffffffffffffffffffffffffffff16600a8281548110610e0c57610e0b612f10565b5b9060005260206000200160009054906101000a900473ffffffffffffffffffffffffffffffffffffffff1673ffffffffffffffffffffffffffffffffffffffff1603610e5b5760019150610e6e565b8080610e6690612f6e565b915050610dd4565b5080610eaf576040517f08c379a0000000000000000000000000000000000000000000000000000000008152600401610ea6906132a8565b60405180910390fd5b60008311610ef2576040517f08c379a0000000000000000000000000000000000000000000000000000000008152600401610ee990613314565b60405180910390fd5b600073ffffffffffffffffffffffffffffffffffffffff168273ffffffffffffffffffffffffffffffffffffffff1603610f61576040517f08c379a0000000000000000000000000000000000000000000000000000000008152600401610f5890613380565b60405180910390fd5b823073ffffffffffffffffffffffffffffffffffffffff16311015610fbb576040517f08c379a0000000000000000000000000000000000000000000000000000000008152600401610fb2906133ec565b60405180910390fd5b6000600c5490506001600c6000828254610fd59190613193565b925050819055506000600d60008381526020019081526020016000209050848160000181905550838160020160006101000a81548173ffffffffffffffffffffffffffffffffffffffff021916908373ffffffffffffffffffffffffffffffffffffffff16021790555060008160020160146101000a81548160ff0219169083151502179055506001816001018190555060018160030160003373ffffffffffffffffffffffffffffffffffffffff1673ffffffffffffffffffffffffffffffffffffffff16815260200190815260200160002060006101000a81548160ff021916908315150217905550817faeebefaca28d3919b6f4ac09b6bc4c04fa151f0eb308e5ea8807baacef6a984d86866040516110f292919061340c565b60405180910390a2817f01abd961ac45cbdbe6ab54236ff6ada5209c871bc7a0d7428c7c85ea4f0aef823360405161112a9190612b63565b60405180910390a26001600b54036111465761114582612108565b5b5050505050565b600080611158611d63565b9050611165858285612370565b6111708585856123fc565b60019150509392505050565b600090565b621312d081565b6000611192610d87565b621312d06111a09190613022565b905090565b6000806111b0611d63565b90506111d18185856111c285896119d5565b6111cc9190613193565b611d6b565b600191505092915050565b600c5481565b60065481565b6000811161122b576040517f08c379a000000000000000000000000000000000000000000000000000000000815260040161122290613314565b60405180910390fd5b80611235336113ed565b1015611276576040517f08c379a000000000000000000000000000000000000000000000000000000000815260040161126d90613481565b60405180910390fd5b60006103e8826112869190613162565b9050803073ffffffffffffffffffffffffffffffffffffffff163110156112e2576040517f08c379a00000000000000000000000000000000000000000000000000000000081526004016112d9906134ed565b60405180910390fd5b6112ec3383612672565b60003373ffffffffffffffffffffffffffffffffffffffff16826040516113129061353e565b60006040518083038185875af1925050503d806000811461134f576040519150601f19603f3d011682016040523d82523d6000602084013e611354565b606091505b5050905080611398576040517f08c379a000000000000000000000000000000000000000000000000000000000815260040161138f9061359f565b60405180910390fd5b3373ffffffffffffffffffffffffffffffffffffffff167f2dcf9433d75db0d8b1c172641f85e319ffe4ad22e108a95d1847ceb906e5195d84846040516113e0929190613233565b60405180910390a2505050565b60008060008373ffffffffffffffffffffffffffffffffffffffff1673ffffffffffffffffffffffffffffffffffffffff168152602001908152602001600020549050919050565b61143d611f34565b611447600061283f565b565b6000805b600a805490508110156114e7573373ffffffffffffffffffffffffffffffffffffffff16600a828154811061148557611484612f10565b5b9060005260206000200160009054906101000a900473ffffffffffffffffffffffffffffffffffffffff1673ffffffffffffffffffffffffffffffffffffffff16036114d457600191506114e7565b80806114df90612f6e565b91505061144d565b5080611528576040517f08c379a000000000000000000000000000000000000000000000000000000000815260040161151f906132a8565b60405180910390fd5b6000600d600084815260200190815260200160002090508060020160149054906101000a900460ff1615611591576040517f08c379a00000000000000000000000000000000000000000000000000000000081526004016115889061360b565b60405180910390fd5b8060030160003373ffffffffffffffffffffffffffffffffffffffff1673ffffffffffffffffffffffffffffffffffffffff16815260200190815260200160002060009054906101000a900460ff1615611620576040517f08c379a000000000000000000000000000000000000000000000000000000000815260040161161790613677565b60405180910390fd5b60018160030160003373ffffffffffffffffffffffffffffffffffffffff1673ffffffffffffffffffffffffffffffffffffffff16815260200190815260200160002060006101000a81548160ff021916908315150217905550600181600101600082825461168f9190613193565b92505081905550827f01abd961ac45cbdbe6ab54236ff6ada5209c871bc7a0d7428c7c85ea4f0aef82336040516116c69190612b63565b60405180910390a2600b548160010154106116e5576116e483612108565b5b505050565b600080600090505b600a8054905081101561178d578273ffffffffffffffffffffffffffffffffffffffff16600a828154811061172a57611729612f10565b5b9060005260206000200160009054906101000a900473ffffffffffffffffffffffffffffffffffffffff1673ffffffffffffffffffffffffffffffffffffffff160361177a576001915050611793565b808061178590612f6e565b9150506116f2565b50600090505b919050565b600b5481565b6000600560009054906101000a900473ffffffffffffffffffffffffffffffffffffffff16905090565b600d6020528060005260406000206000915090508060000154908060010154908060020160009054906101000a900473ffffffffffffffffffffffffffffffffffffffff16908060020160149054906101000a900460ff16905084565b60606004805461183490612d4f565b80601f016020809104026020016040519081016040528092919081815260200182805461186090612d4f565b80156118ad5780601f10611882576101008083540402835291602001916118ad565b820191906000526020600020905b81548152906001019060200180831161189057829003601f168201915b5050505050905090565b6000806118c2611d63565b905060006118d082866119d5565b905083811015611915576040517f08c379a000000000000000000000000000000000000000000000000000000000815260040161190c90613709565b60405180910390fd5b6119228286868403611d6b565b60019250505092915050565b600080611939611d63565b90506119468185856123fc565b600191505092915050565b6000600a80549050905090565b6103e881565b60085481565b6000600d600084815260200190815260200160002060030160008373ffffffffffffffffffffffffffffffffffffffff1673ffffffffffffffffffffffffffffffffffffffff16815260200190815260200160002060009054906101000a900460ff16905092915050565b6000600160008473ffffffffffffffffffffffffffffffffffffffff1673ffffffffffffffffffffffffffffffffffffffff16815260200190815260200160002060008373ffffffffffffffffffffffffffffffffffffffff1673ffffffffffffffffffffffffffffffffffffffff16815260200190815260200160002054905092915050565b611a64611f34565b600960009054906101000a900460ff1615611ab4576040517f08c379a0000000000000000000000000000000000000000000000000000000008152600401611aab9061379b565b60405180910390fd5b611ac083600654611fb2565b611acc82600754611fb2565b611ad881600854611fb2565b6001600960006101000a81548160ff0219169083151502179055507f4864f7df2cd1c07972b3dbf1a98de81ddd7d784caf0078d5e5e372b219f6695c838383604051611b26939291906137bb565b60405180910390a1505050565b611b3b611f34565b600073ffffffffffffffffffffffffffffffffffffffff168173ffffffffffffffffffffffffffffffffffffffff1603611baa576040517f08c379a0000000000000000000000000000000000000000000000000000000008152600401611ba19061383e565b60405180910390fd5b60005b600a80549050811015611c79578173ffffffffffffffffffffffffffffffffffffffff16600a8281548110611be557611be4612f10565b5b9060005260206000200160009054906101000a900473ffffffffffffffffffffffffffffffffffffffff1673ffffffffffffffffffffffffffffffffffffffff1603611c66576040517f08c379a0000000000000000000000000000000000000000000000000000000008152600401611c5d906138aa565b60405180910390fd5b8080611c7190612f6e565b915050611bad565b50600a819080600181540180825580915050600190039060005260206000200160009091909190916101000a81548173ffffffffffffffffffffffffffffffffffffffff021916908373ffffffffffffffffffffffffffffffffffffffff16021790555050565b611ce8611f34565b600073ffffffffffffffffffffffffffffffffffffffff168173ffffffffffffffffffffffffffffffffffffffff1603611d57576040517f08c379a0000000000000000000000000000000000000000000000000000000008152600401611d4e9061393c565b60405180910390fd5b611d608161283f565b50565b600033905090565b600073ffffffffffffffffffffffffffffffffffffffff168373ffffffffffffffffffffffffffffffffffffffff1603611dda576040517f08c379a0000000000000000000000000000000000000000000000000000000008152600401611dd1906139ce565b60405180910390fd5b600073ffffffffffffffffffffffffffffffffffffffff168273ffffffffffffffffffffffffffffffffffffffff1603611e49576040517f08c379a0000000000000000000000000000000000000000000000000000000008152600401611e4090613a60565b60405180910390fd5b80600160008573ffffffffffffffffffffffffffffffffffffffff1673ffffffffffffffffffffffffffffffffffffffff16815260200190815260200160002060008473ffffffffffffffffffffffffffffffffffffffff1673ffffffffffffffffffffffffffffffffffffffff168152602001908152602001600020819055508173ffffffffffffffffffffffffffffffffffffffff168373ffffffffffffffffffffffffffffffffffffffff167f8c5be1e5ebec7d5bd14f71427d1e84f3dd0314c0f7b2291e5b200ac8c7c3b92583604051611f279190612b39565b60405180910390a3505050565b611f3c611d63565b73ffffffffffffffffffffffffffffffffffffffff16611f5a61179e565b73ffffffffffffffffffffffffffffffffffffffff1614611fb0576040517f08c379a0000000000000000000000000000000000000000000000000000000008152600401611fa790613acc565b60405180910390fd5b565b600073ffffffffffffffffffffffffffffffffffffffff168273ffffffffffffffffffffffffffffffffffffffff1603612021576040517f08c379a000000000000000000000000000000000000000000000000000000000815260040161201890613b38565b60405180910390fd5b61202d60008383612905565b806002600082825461203f9190613193565b92505081905550806000808473ffffffffffffffffffffffffffffffffffffffff1673ffffffffffffffffffffffffffffffffffffffff168152602001908152602001600020600082825401925050819055508173ffffffffffffffffffffffffffffffffffffffff16600073ffffffffffffffffffffffffffffffffffffffff167fddf252ad1be2c89b69c2b068fc378daa952ba7f163c4a11628f55a4df523b3ef836040516120f09190612b39565b60405180910390a36121046000838361290a565b5050565b6000600d600083815260200190815260200160002090508060020160149054906101000a900460ff1615612171576040517f08c379a00000000000000000000000000000000000000000000000000000000081526004016121689061360b565b60405180910390fd5b600b54816001015410156121ba576040517f08c379a00000000000000000000000000000000000000000000000000000000081526004016121b190613ba4565b60405180910390fd5b80600001543073ffffffffffffffffffffffffffffffffffffffff16311015612218576040517f08c379a000000000000000000000000000000000000000000000000000000000815260040161220f906133ec565b60405180910390fd5b60018160020160146101000a81548160ff02191690831515021790555060008160020160009054906101000a900473ffffffffffffffffffffffffffffffffffffffff1673ffffffffffffffffffffffffffffffffffffffff1682600001546040516122839061353e565b60006040518083038185875af1925050503d80600081146122c0576040519150601f19603f3d011682016040523d82523d6000602084013e6122c5565b606091505b5050905080612309576040517f08c379a00000000000000000000000000000000000000000000000000000000081526004016123009061359f565b60405180910390fd5b827fec83f882a8fba4c50cbb4e88e9412913156a11e6a0733f736d136a80ad2ddcdb83600001548460020160009054906101000a900473ffffffffffffffffffffffffffffffffffffffff1660405161236392919061340c565b60405180910390a2505050565b600061237c84846119d5565b90507fffffffffffffffffffffffffffffffffffffffffffffffffffffffffffffffff81146123f657818110156123e8576040517f08c379a00000000000000000000000000000000000000000000000000000000081526004016123df90613c10565b60405180910390fd5b6123f58484848403611d6b565b5b50505050565b600073ffffffffffffffffffffffffffffffffffffffff168373ffffffffffffffffffffffffffffffffffffffff160361246b576040517f08c379a000000000000000000000000000000000000000000000000000000000815260040161246290613ca2565b60405180910390fd5b600073ffffffffffffffffffffffffffffffffffffffff168273ffffffffffffffffffffffffffffffffffffffff16036124da576040517f08c379a00000000000000000000000000000000000000000000000000000000081526004016124d190613d34565b60405180910390fd5b6124e5838383612905565b60008060008573ffffffffffffffffffffffffffffffffffffffff1673ffffffffffffffffffffffffffffffffffffffff1681526020019081526020016000205490508181101561256b576040517f08c379a000000000000000000000000000000000000000000000000000000000815260040161256290613dc6565b60405180910390fd5b8181036000808673ffffffffffffffffffffffffffffffffffffffff1673ffffffffffffffffffffffffffffffffffffffff16815260200190815260200160002081905550816000808573ffffffffffffffffffffffffffffffffffffffff1673ffffffffffffffffffffffffffffffffffffffff168152602001908152602001600020600082825401925050819055508273ffffffffffffffffffffffffffffffffffffffff168473ffffffffffffffffffffffffffffffffffffffff167fddf252ad1be2c89b69c2b068fc378daa952ba7f163c4a11628f55a4df523b3ef846040516126599190612b39565b60405180910390a361266c84848461290a565b50505050565b600073ffffffffffffffffffffffffffffffffffffffff168273ffffffffffffffffffffffffffffffffffffffff16036126e1576040517f08c379a00000000000000000000000000000000000000000000000000000000081526004016126d890613e58565b60405180910390fd5b6126ed82600083612905565b60008060008473ffffffffffffffffffffffffffffffffffffffff1673ffffffffffffffffffffffffffffffffffffffff16815260200190815260200160002054905081811015612773576040517f08c379a000000000000000000000000000000000000000000000000000000000815260040161276a90613eea565b60405180910390fd5b8181036000808573ffffffffffffffffffffffffffffffffffffffff1673ffffffffffffffffffffffffffffffffffffffff1681526020019081526020016000208190555081600260008282540392505081905550600073ffffffffffffffffffffffffffffffffffffffff168373ffffffffffffffffffffffffffffffffffffffff167fddf252ad1be2c89b69c2b068fc378daa952ba7f163c4a11628f55a4df523b3ef846040516128269190612b39565b60405180910390a361283a8360008461290a565b505050565b6000600560009054906101000a900473ffffffffffffffffffffffffffffffffffffffff16905081600560006101000a81548173ffffffffffffffffffffffffffffffffffffffff021916908373ffffffffffffffffffffffffffffffffffffffff1602179055508173ffffffffffffffffffffffffffffffffffffffff168173ffffffffffffffffffffffffffffffffffffffff167f8be0079c531659141344cd1fd0a4f28419497f9722a3daafe3b4186f6b6457e060405160405180910390a35050565b505050565b505050565b60008115159050919050565b6129248161290f565b82525050565b600060208201905061293f600083018461291b565b92915050565b600081519050919050565b600082825260208201905092915050565b60005b8381101561297f578082015181840152602081019050612964565b60008484015250505050565b6000601f19601f8301169050919050565b60006129a782612945565b6129b18185612950565b93506129c1818560208601612961565b6129ca8161298b565b840191505092915050565b600060208201905081810360008301526129ef818461299c565b905092915050565b600080fd5b600073ffffffffffffffffffffffffffffffffffffffff82169050919050565b6000612a27826129fc565b9050919050565b612a3781612a1c565b8114612a4257600080fd5b50565b600081359050612a5481612a2e565b92915050565b6000819050919050565b612a6d81612a5a565b8114612a7857600080fd5b50565b600081359050612a8a81612a64565b92915050565b60008060408385031215612aa757612aa66129f7565b5b6000612ab585828601612a45565b9250506020612ac685828601612a7b565b9150509250929050565b600060208284031215612ae657612ae56129f7565b5b6000612af484828501612a7b565b91505092915050565b600060208284031215612b1357612b126129f7565b5b6000612b2184828501612a45565b91505092915050565b612b3381612a5a565b82525050565b6000602082019050612b4e6000830184612b2a565b92915050565b612b5d81612a1c565b82525050565b6000602082019050612b786000830184612b54565b92915050565b60008060408385031215612b9557612b946129f7565b5b6000612ba385828601612a7b565b9250506020612bb485828601612a45565b9150509250929050565b600080600060608486031215612bd757612bd66129f7565b5b6000612be586828701612a45565b9350506020612bf686828701612a45565b9250506040612c0786828701612a7b565b9150509250925092565b600060ff82169050919050565b612c2781612c11565b82525050565b6000602082019050612c426000830184612c1e565b92915050565b6000608082019050612c5d6000830187612b2a565b612c6a6020830186612b2a565b612c776040830185612b54565b612c84606083018461291b565b95945050505050565b60008060408385031215612ca457612ca36129f7565b5b6000612cb285828601612a45565b9250506020612cc385828601612a45565b9150509250929050565b600080600060608486031215612ce657612ce56129f7565b5b6000612cf486828701612a45565b9350506020612d0586828701612a45565b9250506040612d1686828701612a45565b9150509250925092565b7f4e487b7100000000000000000000000000000000000000000000000000000000600052602260045260246000fd5b60006002820490506001821680612d6757607f821691505b602082108103612d7a57612d79612d20565b5b50919050565b7f4d7573742072657175697265206174206c656173742031207369676e6174757260008201527f6500000000000000000000000000000000000000000000000000000000000000602082015250565b6000612ddc602183612950565b9150612de782612d80565b604082019050919050565b60006020820190508181036000830152612e0b81612dcf565b9050919050565b7f43616e6e6f742072657175697265206d6f7265207369676e617475726573207460008201527f68616e207369676e657273000000000000000000000000000000000000000000602082015250565b6000612e6e602b83612950565b9150612e7982612e12565b604082019050919050565b60006020820190508181036000830152612e9d81612e61565b9050919050565b7f43616e6e6f742072656d6f76653a20746f6f20666577207369676e6572730000600082015250565b6000612eda601e83612950565b9150612ee582612ea4565b602082019050919050565b60006020820190508181036000830152612f0981612ecd565b9050919050565b7f4e487b7100000000000000000000000000000000000000000000000000000000600052603260045260246000fd5b7f4e487b7100000000000000000000000000000000000000000000000000000000600052601160045260246000fd5b6000612f7982612a5a565b91507fffffffffffffffffffffffffffffffffffffffffffffffffffffffffffffffff8203612fab57612faa612f3f565b5b600182019050919050565b7f5369676e6572206e6f7420666f756e6400000000000000000000000000000000600082015250565b6000612fec601083612950565b9150612ff782612fb6565b602082019050919050565b6000602082019050818103600083015261301b81612fdf565b9050919050565b600061302d82612a5a565b915061303883612a5a565b92508282039050818111156130505761304f612f3f565b5b92915050565b7f4e487b7100000000000000000000000000000000000000000000000000000000600052603160045260246000fd5b7f4d7573742073656e642045544800000000000000000000000000000000000000600082015250565b60006130bb600d83612950565b91506130c682613085565b602082019050919050565b600060208201905081810360008301526130ea816130ae565b9050919050565b60006130fc82612a5a565b915061310783612a5a565b925082820261311581612a5a565b9150828204841483151761312c5761312b612f3f565b5b5092915050565b7f4e487b7100000000000000000000000000000000000000000000000000000000600052601260045260246000fd5b600061316d82612a5a565b915061317883612a5a565b92508261318857613187613133565b5b828204905092915050565b600061319e82612a5a565b91506131a983612a5a565b92508282019050808211156131c1576131c0612f3f565b5b92915050565b7f576f756c6420657863656564206d617820737570706c79000000000000000000600082015250565b60006131fd601783612950565b9150613208826131c7565b602082019050919050565b6000602082019050818103600083015261322c816131f0565b9050919050565b60006040820190506132486000830185612b2a565b6132556020830184612b2a565b9392505050565b7f4e6f742061207369676e206d656d626572000000000000000000000000000000600082015250565b6000613292601183612950565b915061329d8261325c565b602082019050919050565b600060208201905081810360008301526132c181613285565b9050919050565b7f416d6f756e74206d7573742062652067726561746572207468616e2030000000600082015250565b60006132fe601d83612950565b9150613309826132c8565b602082019050919050565b6000602082019050818103600083015261332d816132f1565b9050919050565b7f496e76616c696420726563697069656e74206164647265737300000000000000600082015250565b600061336a601983612950565b915061337582613334565b602082019050919050565b600060208201905081810360008301526133998161335d565b9050919050565b7f496e73756666696369656e7420636f6e74726163742062616c616e6365000000600082015250565b60006133d6601d83612950565b91506133e1826133a0565b602082019050919050565b60006020820190508181036000830152613405816133c9565b9050919050565b60006040820190506134216000830185612b2a565b61342e6020830184612b54565b9392505050565b7f496e73756666696369656e742062616c616e6365000000000000000000000000600082015250565b600061346b601483612950565b915061347682613435565b602082019050919050565b6000602082019050818103600083015261349a8161345e565b9050919050565b7f496e73756666696369656e742045544820696e20636f6e747261637400000000600082015250565b60006134d7601c83612950565b91506134e2826134a1565b602082019050919050565b60006020820190508181036000830152613506816134ca565b9050919050565b600081905092915050565b50565b600061352860008361350d565b915061353382613518565b600082019050919050565b60006135498261351b565b9150819050919050565b7f455448207472616e73666572206661696c656400000000000000000000000000600082015250565b6000613589601383612950565b915061359482613553565b602082019050919050565b600060208201905081810360008301526135b88161357c565b9050919050565b7f5769746864726177616c20616c72656164792065786563757465640000000000600082015250565b60006135f5601b83612950565b9150613600826135bf565b602082019050919050565b60006020820190508181036000830152613624816135e8565b9050919050565b7f416c7265616479207369676e6564000000000000000000000000000000000000600082015250565b6000613661600e83612950565b915061366c8261362b565b602082019050919050565b6000602082019050818103600083015261369081613654565b9050919050565b7f45524332303a2064656372656173656420616c6c6f77616e63652062656c6f7760008201527f207a65726f000000000000000000000000000000000000000000000000000000602082015250565b60006136f3602583612950565b91506136fe82613697565b604082019050919050565b60006020820190508181036000830152613722816136e6565b9050919050565b7f496e697469616c20646973747269627574696f6e20616c726561647920646f6e60008201527f6500000000000000000000000000000000000000000000000000000000000000602082015250565b6000613785602183612950565b915061379082613729565b604082019050919050565b600060208201905081810360008301526137b481613778565b9050919050565b60006060820190506137d06000830186612b54565b6137dd6020830185612b54565b6137ea6040830184612b54565b949350505050565b7f496e76616c696420616464726573730000000000000000000000000000000000600082015250565b6000613828600f83612950565b9150613833826137f2565b602082019050919050565b600060208201905081810360008301526138578161381b565b9050919050565b7f416c72656164792061207369676e657200000000000000000000000000000000600082015250565b6000613894601083612950565b915061389f8261385e565b602082019050919050565b600060208201905081810360008301526138c381613887565b9050919050565b7f4f776e61626c653a206e6577206f776e657220697320746865207a65726f206160008201527f6464726573730000000000000000000000000000000000000000000000000000602082015250565b6000613926602683612950565b9150613931826138ca565b604082019050919050565b6000602082019050818103600083015261395581613919565b9050919050565b7f45524332303a20617070726f76652066726f6d20746865207a65726f2061646460008201527f7265737300000000000000000000000000000000000000000000000000000000602082015250565b60006139b8602483612950565b91506139c38261395c565b604082019050919050565b600060208201905081810360008301526139e7816139ab565b9050919050565b7f45524332303a20617070726f766520746f20746865207a65726f20616464726560008201527f7373000000000000000000000000000000000000000000000000000000000000602082015250565b6000613a4a602283612950565b9150613a55826139ee565b604082019050919050565b60006020820190508181036000830152613a7981613a3d565b9050919050565b7f4f776e61626c653a2063616c6c6572206973206e6f7420746865206f776e6572600082015250565b6000613ab6602083612950565b9150613ac182613a80565b602082019050919050565b60006020820190508181036000830152613ae581613aa9565b9050919050565b7f45524332303a206d696e7420746f20746865207a65726f206164647265737300600082015250565b6000613b22601f83612950565b9150613b2d82613aec565b602082019050919050565b60006020820190508181036000830152613b5181613b15565b9050919050565b7f4e6f7420656e6f756768207369676e6174757265730000000000000000000000600082015250565b6000613b8e601583612950565b9150613b9982613b58565b602082019050919050565b60006020820190508181036000830152613bbd81613b81565b9050919050565b7f45524332303a20696e73756666696369656e7420616c6c6f77616e6365000000600082015250565b6000613bfa601d83612950565b9150613c0582613bc4565b602082019050919050565b60006020820190508181036000830152613c2981613bed565b9050919050565b7f45524332303a207472616e736665722066726f6d20746865207a65726f20616460008201527f6472657373000000000000000000000000000000000000000000000000000000602082015250565b6000613c8c602583612950565b9150613c9782613c30565b604082019050919050565b60006020820190508181036000830152613cbb81613c7f565b9050919050565b7f45524332303a207472616e7366657220746f20746865207a65726f206164647260008201527f6573730000000000000000000000000000000000000000000000000000000000602082015250565b6000613d1e602383612950565b9150613d2982613cc2565b604082019050919050565b60006020820190508181036000830152613d4d81613d11565b9050919050565b7f45524332303a207472616e7366657220616d6f756e742065786365656473206260008201527f616c616e63650000000000000000000000000000000000000000000000000000602082015250565b6000613db0602683612950565b9150613dbb82613d54565b604082019050919050565b60006020820190508181036000830152613ddf81613da3565b9050919050565b7f45524332303a206275726e2066726f6d20746865207a65726f2061646472657360008201527f7300000000000000000000000000000000000000000000000000000000000000602082015250565b6000613e42602183612950565b9150613e4d82613de6565b604082019050919050565b60006020820190508181036000830152613e7181613e35565b9050919050565b7f45524332303a206275726e20616d6f756e7420657863656564732062616c616e60008201527f6365000000000000000000000000000000000000000000000000000000000000602082015250565b6000613ed4602283612950565b9150613edf82613e78565b604082019050919050565b60006020820190508181036000830152613f0381613ec7565b905091905056fea2646970667358221220f86128276e33b2bc557a0a3e47783e363c9ecf419ed963605b2ba03435a4186c64736f6c63430008140033",
  "immutableReferences": {},
  "source": "// SPDX-License-Identifier: MIT\npragma solidity ^0.8.20;\n\n//  OpenZeppelin  ERC20 \nimport \"@openzeppelin/contracts/token/ERC20/ERC20.sol\";\n//  OpenZeppelin \nimport \"@openzeppelin/contracts/access/Ownable.sol\";\n\n// YiDengToken  ERC20  Ownable\ncontract YiDengToken is ERC20, Ownable {\n    //  ETH  YD 1 ETH = 1000 YD\n    uint256 public constant TOKENS_PER_ETH = 1000;\n    // 125 YD 18 \n    uint256 public constant MAX_SUPPLY = 1250000;\n\n    // 20% = 25 YD\n    uint256 public teamAllocation;\n    // 10% = 12.5 YD\n    uint256 public marketingAllocation;\n    // 10% = 12.5 YD\n    uint256 public communityAllocation;\n    //  60% = 75 YD \n\n    // \n    bool public initialDistributionDone;\n    function decimals() public view virtual override returns (uint8) {\n        return 0;\n    }\n    \n    // \n    address[] public signers;               // \n    uint256 public requiredSignatures;      // \n    uint256 public withdrawalId;            // ID\n    \n    // \n    struct WithdrawalRequest {\n        uint256 amount;                     // \n        uint256 signatureCount;             // \n        address recipient;                  // \n        bool executed;                      // \n        mapping(address => bool) signatures;// \n    }\n    \n    // \n    mapping(uint256 => WithdrawalRequest) public withdrawalRequests;\n    \n    // \n    event WithdrawalRequested(uint256 indexed withdrawalId, uint256 amount, address recipient);\n    event WithdrawalSigned(uint256 indexed withdrawalId, address signer);\n    event WithdrawalExecuted(uint256 indexed withdrawalId, uint256 amount, address recipient);\n    \n    // \n    event TokensPurchased(\n        address indexed buyer,\n        uint256 ethAmount,\n        uint256 tokenAmount\n    );\n    event TokensSold(\n        address indexed seller,\n        uint256 tokenAmount,\n        uint256 ethAmount\n    );\n    event InitialDistributionCompleted(\n        address teamWallet,\n        address marketingWallet,\n        address communityWallet\n    );\n\n    //  \"YiDeng Token\" \"YD\"\n    constructor() ERC20(\"YiDeng Token\", \"YD\") Ownable() {\n        // \n        teamAllocation = (MAX_SUPPLY * 20) / 100; // 20% \n        marketingAllocation = (MAX_SUPPLY * 10) / 100; // 10% \n        communityAllocation = (MAX_SUPPLY * 10) / 100; // 10% \n        \n        // \n        signers.push(msg.sender);\n        requiredSignatures = 1;\n    }\n\n    // \n    function distributeInitialTokens(\n        address teamWallet, // \n        address marketingWallet, // \n        address communityWallet // \n    ) external onlyOwner {\n        require(!initialDistributionDone, \"Initial distribution already done\");\n\n        _mint(teamWallet, teamAllocation); // \n        _mint(marketingWallet, marketingAllocation); // \n        _mint(communityWallet, communityAllocation); // \n\n        initialDistributionDone = true;\n        emit InitialDistributionCompleted(\n            teamWallet,\n            marketingWallet,\n            communityWallet\n        );\n    }\n\n    //  ETH  YD \n    function buyWithETH() external payable {\n        require(msg.value > 0, \"Must send ETH\");\n\n        uint256 tokenAmount = (msg.value * TOKENS_PER_ETH) / 1 ether;\n        require(\n            totalSupply() + tokenAmount <= MAX_SUPPLY,\n            \"Would exceed max supply\"\n        );\n\n        _mint(msg.sender, tokenAmount);\n        emit TokensPurchased(msg.sender, msg.value, tokenAmount);\n    }\n\n    /**\n     * @notice YiDengETH\n     * @param tokenAmount \n     */\n    function sellTokens(uint256 tokenAmount) external {\n        require(tokenAmount > 0, \"Amount must be greater than 0\");\n        require(balanceOf(msg.sender) >= tokenAmount, \"Insufficient balance\");\n\n        // ETH\n        uint256 ethAmount = tokenAmount / TOKENS_PER_ETH;\n        require(\n            address(this).balance >= ethAmount,\n            \"Insufficient ETH in contract\"\n        );\n\n        // \n        _burn(msg.sender, tokenAmount);\n\n        // ETH\n        (bool success, ) = payable(msg.sender).call{value: ethAmount}(\"\");\n        require(success, \"ETH transfer failed\");\n\n        emit TokensSold(msg.sender, tokenAmount, ethAmount);\n    }\n\n    // \n    function remainingMintableSupply() public view returns (uint256) {\n        return MAX_SUPPLY - totalSupply();\n    }\n\n    //  ----------------------------------------\n    \n    // \n    modifier onlyMultiSigner() {\n        bool isMember = false;\n        for (uint i = 0; i < signers.length; i++) {\n            if (signers[i] == msg.sender) {\n                isMember = true;\n                break;\n            }\n        }\n        require(isMember, \"Not a sign member\");\n        _;\n    }\n    \n    // \n    function addSigner(address newSigner) external onlyOwner {\n        require(newSigner != address(0), \"Invalid address\");\n        \n        // \n        for (uint i = 0; i < signers.length; i++) {\n            require(signers[i] != newSigner, \"Already a signer\");\n        }\n        \n        signers.push(newSigner);\n    }\n    \n    // \n    function removeSigner(address signerToRemove) external onlyOwner {\n        require(signers.length > requiredSignatures, \"Cannot remove: too few signers\");\n        \n        uint indexToRemove = signers.length;\n        for (uint i = 0; i < signers.length; i++) {\n            if (signers[i] == signerToRemove) {\n                indexToRemove = i;\n                break;\n            }\n        }\n        \n        require(indexToRemove < signers.length, \"Signer not found\");\n        \n        // \n        signers[indexToRemove] = signers[signers.length - 1];\n        signers.pop();\n    }\n    \n    // \n    function updateRequiredSignatures(uint256 newRequiredSignatures) external onlyOwner {\n        require(newRequiredSignatures > 0, \"Must require at least 1 signature\");\n        require(newRequiredSignatures <= signers.length, \"Cannot require more signatures than signers\");\n        \n        requiredSignatures = newRequiredSignatures;\n    }\n    \n    // \n    function requestWithdrawal(uint256 amount, address recipient) external onlyMultiSigner {\n        require(amount > 0, \"Amount must be greater than 0\");\n        require(recipient != address(0), \"Invalid recipient address\");\n        require(address(this).balance >= amount, \"Insufficient contract balance\");\n        \n        uint256 requestId = withdrawalId;\n        withdrawalId += 1;\n        \n        WithdrawalRequest storage request = withdrawalRequests[requestId];\n        request.amount = amount;\n        request.recipient = recipient;\n        request.executed = false;\n        request.signatureCount = 1;  // \n        request.signatures[msg.sender] = true;\n        \n        emit WithdrawalRequested(requestId, amount, recipient);\n        emit WithdrawalSigned(requestId, msg.sender);\n        \n        // \n        if (requiredSignatures == 1) {\n            executeWithdrawal(requestId);\n        }\n    }\n    \n    // \n    function signWithdrawal(uint256 requestId) external onlyMultiSigner {\n        WithdrawalRequest storage request = withdrawalRequests[requestId];\n        \n        require(!request.executed, \"Withdrawal already executed\");\n        require(!request.signatures[msg.sender], \"Already signed\");\n        \n        request.signatures[msg.sender] = true;\n        request.signatureCount += 1;\n        \n        emit WithdrawalSigned(requestId, msg.sender);\n        \n        // \n        if (request.signatureCount >= requiredSignatures) {\n            executeWithdrawal(requestId);\n        }\n    }\n    \n    // \n    function executeWithdrawal(uint256 requestId) internal {\n        WithdrawalRequest storage request = withdrawalRequests[requestId];\n        \n        require(!request.executed, \"Withdrawal already executed\");\n        require(request.signatureCount >= requiredSignatures, \"Not enough signatures\");\n        require(address(this).balance >= request.amount, \"Insufficient contract balance\");\n        \n        request.executed = true;\n        \n        (bool success, ) = request.recipient.call{value: request.amount}(\"\");\n        require(success, \"ETH transfer failed\");\n        \n        emit WithdrawalExecuted(requestId, request.amount, request.recipient);\n    }\n    \n    // \n    function getSignerCount() external view returns (uint256) {\n        return signers.length;\n    }\n    \n    // \n    function isSigner(address account) external view returns (bool) {\n        for (uint i = 0; i < signers.length; i++) {\n            if (signers[i] == account) {\n                return true;\n            }\n        }\n        return false;\n    }\n    \n    // \n    function hasSignedWithdrawal(uint256 requestId, address signer) external view returns (bool) {\n        return withdrawalRequests[requestId].signatures[signer];\n    }\n\n    // ETH\n    receive() external payable {}\n\n    // ETH\n    fallback() external payable {}\n}",
  "sourcePath": "/Users/zhaoyi/Desktop/project/web3/web3-contract/contracts/YiDengToken.sol",
  "compiler": {
    "name": "solc",
    "version": "0.8.20+commit.a1b79de6.Emscripten.clang"
  },
  "schemaVersion": "3.4.16",
  "updatedAt": "2025-04-01T16:01:13.387Z",
  "networkType": "ethereum",
  "devdoc": {
    "events": {
      "Approval(address,address,uint256)": {
        "details": "Emitted when the allowance of a `spender` for an `owner` is set by a call to {approve}. `value` is the new allowance."
      },
      "Transfer(address,address,uint256)": {
        "details": "Emitted when `value` tokens are moved from one account (`from`) to another (`to`). Note that `value` may be zero."
      }
    },
    "kind": "dev",
    "methods": {
      "allowance(address,address)": {
        "details": "See {IERC20-allowance}."
      },
      "approve(address,uint256)": {
        "details": "See {IERC20-approve}. NOTE: If `amount` is the maximum `uint256`, the allowance is not updated on `transferFrom`. This is semantically equivalent to an infinite approval. Requirements: - `spender` cannot be the zero address."
      },
      "balanceOf(address)": {
        "details": "See {IERC20-balanceOf}."
      },
      "decimals()": {
        "details": "Returns the number of decimals used to get its user representation. For example, if `decimals` equals `2`, a balance of `505` tokens should be displayed to a user as `5.05` (`505 / 10 ** 2`). Tokens usually opt for a value of 18, imitating the relationship between Ether and Wei. This is the default value returned by this function, unless it's overridden. NOTE: This information is only used for _display_ purposes: it in no way affects any of the arithmetic of the contract, including {IERC20-balanceOf} and {IERC20-transfer}."
      },
      "decreaseAllowance(address,uint256)": {
        "details": "Atomically decreases the allowance granted to `spender` by the caller. This is an alternative to {approve} that can be used as a mitigation for problems described in {IERC20-approve}. Emits an {Approval} event indicating the updated allowance. Requirements: - `spender` cannot be the zero address. - `spender` must have allowance for the caller of at least `subtractedValue`."
      },
      "increaseAllowance(address,uint256)": {
        "details": "Atomically increases the allowance granted to `spender` by the caller. This is an alternative to {approve} that can be used as a mitigation for problems described in {IERC20-approve}. Emits an {Approval} event indicating the updated allowance. Requirements: - `spender` cannot be the zero address."
      },
      "name()": {
        "details": "Returns the name of the token."
      },
      "owner()": {
        "details": "Returns the address of the current owner."
      },
      "renounceOwnership()": {
        "details": "Leaves the contract without owner. It will not be possible to call `onlyOwner` functions. Can only be called by the current owner. NOTE: Renouncing ownership will leave the contract without an owner, thereby disabling any functionality that is only available to the owner."
      },
      "sellTokens(uint256)": {
        "params": {
          "tokenAmount": ""
        }
      },
      "symbol()": {
        "details": "Returns the symbol of the token, usually a shorter version of the name."
      },
      "totalSupply()": {
        "details": "See {IERC20-totalSupply}."
      },
      "transfer(address,uint256)": {
        "details": "See {IERC20-transfer}. Requirements: - `to` cannot be the zero address. - the caller must have a balance of at least `amount`."
      },
      "transferFrom(address,address,uint256)": {
        "details": "See {IERC20-transferFrom}. Emits an {Approval} event indicating the updated allowance. This is not required by the EIP. See the note at the beginning of {ERC20}. NOTE: Does not update the allowance if the current allowance is the maximum `uint256`. Requirements: - `from` and `to` cannot be the zero address. - `from` must have a balance of at least `amount`. - the caller must have allowance for ``from``'s tokens of at least `amount`."
      },
      "transferOwnership(address)": {
        "details": "Transfers ownership of the contract to a new account (`newOwner`). Can only be called by the current owner."
      }
    },
    "version": 1
  },
  "userdoc": {
    "kind": "user",
    "methods": {
      "sellTokens(uint256)": {
        "notice": "YiDengETH"
      }
    },
    "version": 1
  }
}