{
  "contractName": "YiDengToken",
  "abi": [
    {
      "inputs": [],
      "stateMutability": "nonpayable",
      "type": "constructor"
    },
    {
      "anonymous": false,
      "inputs": [
        {
          "indexed": true,
          "internalType": "address",
          "name": "owner",
          "type": "address"
        },
        {
          "indexed": true,
          "internalType": "address",
          "name": "spender",
          "type": "address"
        },
        {
          "indexed": false,
          "internalType": "uint256",
          "name": "value",
          "type": "uint256"
        }
      ],
      "name": "Approval",
      "type": "event"
    },
    {
      "anonymous": false,
      "inputs": [
        {
          "indexed": false,
          "internalType": "address",
          "name": "teamWallet",
          "type": "address"
        },
        {
          "indexed": false,
          "internalType": "address",
          "name": "marketingWallet",
          "type": "address"
        },
        {
          "indexed": false,
          "internalType": "address",
          "name": "communityWallet",
          "type": "address"
        }
      ],
      "name": "InitialDistributionCompleted",
      "type": "event"
    },
    {
      "anonymous": false,
      "inputs": [
        {
          "indexed": true,
          "internalType": "address",
          "name": "previousOwner",
          "type": "address"
        },
        {
          "indexed": true,
          "internalType": "address",
          "name": "newOwner",
          "type": "address"
        }
      ],
      "name": "OwnershipTransferred",
      "type": "event"
    },
    {
      "anonymous": false,
      "inputs": [
        {
          "indexed": true,
          "internalType": "address",
          "name": "buyer",
          "type": "address"
        },
        {
          "indexed": false,
          "internalType": "uint256",
          "name": "ethAmount",
          "type": "uint256"
        },
        {
          "indexed": false,
          "internalType": "uint256",
          "name": "tokenAmount",
          "type": "uint256"
        }
      ],
      "name": "TokensPurchased",
      "type": "event"
    },
    {
      "anonymous": false,
      "inputs": [
        {
          "indexed": true,
          "internalType": "address",
          "name": "seller",
          "type": "address"
        },
        {
          "indexed": false,
          "internalType": "uint256",
          "name": "tokenAmount",
          "type": "uint256"
        },
        {
          "indexed": false,
          "internalType": "uint256",
          "name": "ethAmount",
          "type": "uint256"
        }
      ],
      "name": "TokensSold",
      "type": "event"
    },
    {
      "anonymous": false,
      "inputs": [
        {
          "indexed": true,
          "internalType": "address",
          "name": "from",
          "type": "address"
        },
        {
          "indexed": true,
          "internalType": "address",
          "name": "to",
          "type": "address"
        },
        {
          "indexed": false,
          "internalType": "uint256",
          "name": "value",
          "type": "uint256"
        }
      ],
      "name": "Transfer",
      "type": "event"
    },
    {
      "anonymous": false,
      "inputs": [
        {
          "indexed": true,
          "internalType": "uint256",
          "name": "withdrawalId",
          "type": "uint256"
        },
        {
          "indexed": false,
          "internalType": "uint256",
          "name": "amount",
          "type": "uint256"
        },
        {
          "indexed": false,
          "internalType": "address",
          "name": "recipient",
          "type": "address"
        }
      ],
      "name": "WithdrawalExecuted",
      "type": "event"
    },
    {
      "anonymous": false,
      "inputs": [
        {
          "indexed": true,
          "internalType": "uint256",
          "name": "withdrawalId",
          "type": "uint256"
        },
        {
          "indexed": false,
          "internalType": "uint256",
          "name": "amount",
          "type": "uint256"
        },
        {
          "indexed": false,
          "internalType": "address",
          "name": "recipient",
          "type": "address"
        }
      ],
      "name": "WithdrawalRequested",
      "type": "event"
    },
    {
      "anonymous": false,
      "inputs": [
        {
          "indexed": true,
          "internalType": "uint256",
          "name": "withdrawalId",
          "type": "uint256"
        },
        {
          "indexed": false,
          "internalType": "address",
          "name": "signer",
          "type": "address"
        }
      ],
      "name": "WithdrawalSigned",
      "type": "event"
    },
    {
      "stateMutability": "payable",
      "type": "fallback",
      "payable": true
    },
    {
      "inputs": [],
      "name": "MAX_SUPPLY",
      "outputs": [
        {
          "internalType": "uint256",
          "name": "",
          "type": "uint256"
        }
      ],
      "stateMutability": "view",
      "type": "function",
      "constant": true
    },
    {
      "inputs": [],
      "name": "TOKENS_PER_ETH",
      "outputs": [
        {
          "internalType": "uint256",
          "name": "",
          "type": "uint256"
        }
      ],
      "stateMutability": "view",
      "type": "function",
      "constant": true
    },
    {
      "inputs": [
        {
          "internalType": "address",
          "name": "owner",
          "type": "address"
        },
        {
          "internalType": "address",
          "name": "spender",
          "type": "address"
        }
      ],
      "name": "allowance",
      "outputs": [
        {
          "internalType": "uint256",
          "name": "",
          "type": "uint256"
        }
      ],
      "stateMutability": "view",
      "type": "function",
      "constant": true
    },
    {
      "inputs": [
        {
          "internalType": "address",
          "name": "spender",
          "type": "address"
        },
        {
          "internalType": "uint256",
          "name": "amount",
          "type": "uint256"
        }
      ],
      "name": "approve",
      "outputs": [
        {
          "internalType": "bool",
          "name": "",
          "type": "bool"
        }
      ],
      "stateMutability": "nonpayable",
      "type": "function"
    },
    {
      "inputs": [
        {
          "internalType": "address",
          "name": "account",
          "type": "address"
        }
      ],
      "name": "balanceOf",
      "outputs": [
        {
          "internalType": "uint256",
          "name": "",
          "type": "uint256"
        }
      ],
      "stateMutability": "view",
      "type": "function",
      "constant": true
    },
    {
      "inputs": [],
      "name": "communityAllocation",
      "outputs": [
        {
          "internalType": "uint256",
          "name": "",
          "type": "uint256"
        }
      ],
      "stateMutability": "view",
      "type": "function",
      "constant": true
    },
    {
      "inputs": [
        {
          "internalType": "address",
          "name": "spender",
          "type": "address"
        },
        {
          "internalType": "uint256",
          "name": "subtractedValue",
          "type": "uint256"
        }
      ],
      "name": "decreaseAllowance",
      "outputs": [
        {
          "internalType": "bool",
          "name": "",
          "type": "bool"
        }
      ],
      "stateMutability": "nonpayable",
      "type": "function"
    },
    {
      "inputs": [
        {
          "internalType": "address",
          "name": "spender",
          "type": "address"
        },
        {
          "internalType": "uint256",
          "name": "addedValue",
          "type": "uint256"
        }
      ],
      "name": "increaseAllowance",
      "outputs": [
        {
          "internalType": "bool",
          "name": "",
          "type": "bool"
        }
      ],
      "stateMutability": "nonpayable",
      "type": "function"
    },
    {
      "inputs": [],
      "name": "initialDistributionDone",
      "outputs": [
        {
          "internalType": "bool",
          "name": "",
          "type": "bool"
        }
      ],
      "stateMutability": "view",
      "type": "function",
      "constant": true
    },
    {
      "inputs": [],
      "name": "marketingAllocation",
      "outputs": [
        {
          "internalType": "uint256",
          "name": "",
          "type": "uint256"
        }
      ],
      "stateMutability": "view",
      "type": "function",
      "constant": true
    },
    {
      "inputs": [],
      "name": "name",
      "outputs": [
        {
          "internalType": "string",
          "name": "",
          "type": "string"
        }
      ],
      "stateMutability": "view",
      "type": "function",
      "constant": true
    },
    {
      "inputs": [],
      "name": "owner",
      "outputs": [
        {
          "internalType": "address",
          "name": "",
          "type": "address"
        }
      ],
      "stateMutability": "view",
      "type": "function",
      "constant": true
    },
    {
      "inputs": [],
      "name": "renounceOwnership",
      "outputs": [],
      "stateMutability": "nonpayable",
      "type": "function"
    },
    {
      "inputs": [],
      "name": "requiredSignatures",
      "outputs": [
        {
          "internalType": "uint256",
          "name": "",
          "type": "uint256"
        }
      ],
      "stateMutability": "view",
      "type": "function",
      "constant": true
    },
    {
      "inputs": [
        {
          "internalType": "uint256",
          "name": "",
          "type": "uint256"
        }
      ],
      "name": "signers",
      "outputs": [
        {
          "internalType": "address",
          "name": "",
          "type": "address"
        }
      ],
      "stateMutability": "view",
      "type": "function",
      "constant": true
    },
    {
      "inputs": [],
      "name": "symbol",
      "outputs": [
        {
          "internalType": "string",
          "name": "",
          "type": "string"
        }
      ],
      "stateMutability": "view",
      "type": "function",
      "constant": true
    },
    {
      "inputs": [],
      "name": "teamAllocation",
      "outputs": [
        {
          "internalType": "uint256",
          "name": "",
          "type": "uint256"
        }
      ],
      "stateMutability": "view",
      "type": "function",
      "constant": true
    },
    {
      "inputs": [],
      "name": "totalSupply",
      "outputs": [
        {
          "internalType": "uint256",
          "name": "",
          "type": "uint256"
        }
      ],
      "stateMutability": "view",
      "type": "function",
      "constant": true
    },
    {
      "inputs": [
        {
          "internalType": "address",
          "name": "to",
          "type": "address"
        },
        {
          "internalType": "uint256",
          "name": "amount",
          "type": "uint256"
        }
      ],
      "name": "transfer",
      "outputs": [
        {
          "internalType": "bool",
          "name": "",
          "type": "bool"
        }
      ],
      "stateMutability": "nonpayable",
      "type": "function"
    },
    {
      "inputs": [
        {
          "internalType": "address",
          "name": "from",
          "type": "address"
        },
        {
          "internalType": "address",
          "name": "to",
          "type": "address"
        },
        {
          "internalType": "uint256",
          "name": "amount",
          "type": "uint256"
        }
      ],
      "name": "transferFrom",
      "outputs": [
        {
          "internalType": "bool",
          "name": "",
          "type": "bool"
        }
      ],
      "stateMutability": "nonpayable",
      "type": "function"
    },
    {
      "inputs": [
        {
          "internalType": "address",
          "name": "newOwner",
          "type": "address"
        }
      ],
      "name": "transferOwnership",
      "outputs": [],
      "stateMutability": "nonpayable",
      "type": "function"
    },
    {
      "inputs": [],
      "name": "withdrawalId",
      "outputs": [
        {
          "internalType": "uint256",
          "name": "",
          "type": "uint256"
        }
      ],
      "stateMutability": "view",
      "type": "function",
      "constant": true
    },
    {
      "inputs": [
        {
          "internalType": "uint256",
          "name": "",
          "type": "uint256"
        }
      ],
      "name": "withdrawalRequests",
      "outputs": [
        {
          "internalType": "uint256",
          "name": "amount",
          "type": "uint256"
        },
        {
          "internalType": "uint256",
          "name": "signatureCount",
          "type": "uint256"
        },
        {
          "internalType": "address",
          "name": "recipient",
          "type": "address"
        },
        {
          "internalType": "bool",
          "name": "executed",
          "type": "bool"
        }
      ],
      "stateMutability": "view",
      "type": "function",
      "constant": true
    },
    {
      "stateMutability": "payable",
      "type": "receive",
      "payable": true
    },
    {
      "inputs": [],
      "name": "decimals",
      "outputs": [
        {
          "internalType": "uint8",
          "name": "",
          "type": "uint8"
        }
      ],
      "stateMutability": "view",
      "type": "function",
      "constant": true
    },
    {
      "inputs": [
        {
          "internalType": "address",
          "name": "teamWallet",
          "type": "address"
        },
        {
          "internalType": "address",
          "name": "marketingWallet",
          "type": "address"
        },
        {
          "internalType": "address",
          "name": "communityWallet",
          "type": "address"
        }
      ],
      "name": "distributeInitialTokens",
      "outputs": [],
      "stateMutability": "nonpayable",
      "type": "function"
    },
    {
      "inputs": [],
      "name": "buyWithETH",
      "outputs": [],
      "stateMutability": "payable",
      "type": "function",
      "payable": true
    },
    {
      "inputs": [
        {
          "internalType": "uint256",
          "name": "tokenAmount",
          "type": "uint256"
        }
      ],
      "name": "sellTokens",
      "outputs": [],
      "stateMutability": "nonpayable",
      "type": "function"
    },
    {
      "inputs": [],
      "name": "remainingMintableSupply",
      "outputs": [
        {
          "internalType": "uint256",
          "name": "",
          "type": "uint256"
        }
      ],
      "stateMutability": "view",
      "type": "function",
      "constant": true
    },
    {
      "inputs": [
        {
          "internalType": "address",
          "name": "newSigner",
          "type": "address"
        }
      ],
      "name": "addSigner",
      "outputs": [],
      "stateMutability": "nonpayable",
      "type": "function"
    },
    {
      "inputs": [
        {
          "internalType": "address",
          "name": "signerToRemove",
          "type": "address"
        }
      ],
      "name": "removeSigner",
      "outputs": [],
      "stateMutability": "nonpayable",
      "type": "function"
    },
    {
      "inputs": [
        {
          "internalType": "uint256",
          "name": "newRequiredSignatures",
          "type": "uint256"
        }
      ],
      "name": "updateRequiredSignatures",
      "outputs": [],
      "stateMutability": "nonpayable",
      "type": "function"
    },
    {
      "inputs": [
        {
          "internalType": "uint256",
          "name": "amount",
          "type": "uint256"
        },
        {
          "internalType": "address",
          "name": "recipient",
          "type": "address"
        }
      ],
      "name": "requestWithdrawal",
      "outputs": [],
      "stateMutability": "nonpayable",
      "type": "function"
    },
    {
      "inputs": [
        {
          "internalType": "uint256",
          "name": "requestId",
          "type": "uint256"
        }
      ],
      "name": "signWithdrawal",
      "outputs": [],
      "stateMutability": "nonpayable",
      "type": "function"
    },
    {
      "inputs": [],
      "name": "getSignerCount",
      "outputs": [
        {
          "internalType": "uint256",
          "name": "",
          "type": "uint256"
        }
      ],
      "stateMutability": "view",
      "type": "function",
      "constant": true
    },
    {
      "inputs": [
        {
          "internalType": "address",
          "name": "account",
          "type": "address"
        }
      ],
      "name": "isSigner",
      "outputs": [
        {
          "internalType": "bool",
          "name": "",
          "type": "bool"
        }
      ],
      "stateMutability": "view",
      "type": "function",
      "constant": true
    },
    {
      "inputs": [
        {
          "internalType": "uint256",
          "name": "requestId",
          "type": "uint256"
        },
        {
          "internalType": "address",
          "name": "signer",
          "type": "address"
        }
      ],
      "name": "hasSignedWithdrawal",
      "outputs": [
        {
          "internalType": "bool",
          "name": "",
          "type": "bool"
        }
      ],
      "stateMutability": "view",
      "type": "function",
      "constant": true
    }
  ],
  "bytecode": "0x60806040523480156200001157600080fd5b506040518060400160405280600c81526020017f596944656e6720546f6b656e00000000000000000000000000000000000000008152506040518060400160405280600281526020017f594400000000000000000000000000000000000000000000000000000000000081525081600390816200008f9190620002a9565b5060046200009e8282620002a9565b505050620000cd620000be6200017c640100000000026401000000009004565b64010000000062000180810204565b6064620000df621312d060146200037c565b620000eb9190620003c1565b600655606462000100621312d0600a6200037c565b6200010c9190620003c1565b600755606462000121621312d0600a6200037c565b6200012d9190620003c1565b600855600a8054600181810183556000929092527fc65a7bb8d6351c1cf70c95a316cc6a92839c986682d98bc35f958f4883f9d2a8018054600160a060020a03191633179055600b55620003fd565b3390565b60058054600160a060020a03838116600160a060020a0319831681179093556040519116919082907f8be0079c531659141344cd1fd0a4f28419497f9722a3daafe3b4186f6b6457e090600090a35050565b7f4e487b7100000000000000000000000000000000000000000000000000000000600052604160045260246000fd5b6002810460018216806200021657607f821691505b60208210810362000250577f4e487b7100000000000000000000000000000000000000000000000000000000600052602260045260246000fd5b50919050565b601f821115620002a4576000818152602081206020601f860104810160208610156200027f5750805b6020601f860104820191505b81811015620002a0578281556001016200028b565b5050505b505050565b815167ffffffffffffffff811115620002c657620002c6620001d2565b620002de81620002d7845462000201565b8462000256565b602080601f8311600181146200031a5760008415620002fd5750858301515b60028086026008870290910a6000190419821617865550620002a0565b600085815260208120601f198616915b828110156200034b578886015182559484019460019091019084016200032a565b50858210156200036c57878501516008601f88160260020a60001904191681555b5050505050600202600101905550565b8082028115828204841417620003bb577f4e487b7100000000000000000000000000000000000000000000000000000000600052601160045260246000fd5b92915050565b600082620003f8577f4e487b7100000000000000000000000000000000000000000000000000000000600052601260045260246000fd5b500490565b61233b806200040d6000396000f3fe608060405260043610610218576000357c01000000000000000000000000000000000000000000000000000000009004806370a0823111610129578063a9059cbb116100b7578063dca7bbe611610089578063dca7bbe614610627578063dd62ed3e14610671578063e492c5a914610691578063eb12d61e146106b1578063f2fde38b146106d157005b8063a9059cbb146105c6578063b715be81146105e6578063bc6e6604146105fb578063d53b4ab41461061157005b80638d068043116100fb5780638d068043146104ca5780638da5cb5b146104e0578063937b2581146104fe57806395d89b4114610591578063a457c2d7146105a657005b806370a082311461043f578063715018a6146104755780637dcf975a1461048a5780637df73e27146104aa57005b806321739779116101a6578063349f0b9011610178578063349f0b90146103be57806339509351146103d357806352cda148146103f35780636816521a146104095780636c11bcd31461041f57005b8063217397791461034b57806323b872dd1461036b578063313ce5671461038b57806332cb6b0c146103a757005b80630e316ab7116101ea5780630e316ab7146102b2578063150d283d146102d257806315f0c220146102da57806318160ddd146102fe5780632079fb9a1461031357005b80630535ec771461022157806306fdde0314610250578063095ea7b3146102725780630d60432e1461029257005b3661021f57005b005b34801561022d57600080fd5b5060095461023b9060ff1681565b60405190151581526020015b60405180910390f35b34801561025c57600080fd5b506102656106f1565b604051610247919061205e565b34801561027e57600080fd5b5061023b61028d3660046120c8565b610783565b34801561029e57600080fd5b5061021f6102ad3660046120f2565b61079d565b3480156102be57600080fd5b5061021f6102cd36600461210b565b6108a3565b61021f610a75565b3480156102e657600080fd5b506102f060075481565b604051908152602001610247565b34801561030a57600080fd5b506002546102f0565b34801561031f57600080fd5b5061033361032e3660046120f2565b610b9c565b604051600160a060020a039091168152602001610247565b34801561035757600080fd5b5061021f61036636600461212d565b610bc6565b34801561037757600080fd5b5061023b610386366004612159565b610e7b565b34801561039757600080fd5b5060405160008152602001610247565b3480156103b357600080fd5b506102f0621312d081565b3480156103ca57600080fd5b506102f0610e9f565b3480156103df57600080fd5b5061023b6103ee3660046120c8565b610ebc565b3480156103ff57600080fd5b506102f0600c5481565b34801561041557600080fd5b506102f060065481565b34801561042b57600080fd5b5061021f61043a3660046120f2565b610ede565b34801561044b57600080fd5b506102f061045a36600461210b565b600160a060020a031660009081526020819052604090205490565b34801561048157600080fd5b5061021f6110dd565b34801561049657600080fd5b5061021f6104a53660046120f2565b6110f1565b3480156104b657600080fd5b5061023b6104c536600461210b565b61130d565b3480156104d657600080fd5b506102f0600b5481565b3480156104ec57600080fd5b50600554600160a060020a0316610333565b34801561050a57600080fd5b506105606105193660046120f2565b600d60205260009081526040902080546001820154600290920154909190600160a060020a0381169074010000000000000000000000000000000000000000900460ff1684565b60405161024794939291909384526020840192909252600160a060020a031660408301521515606082015260800190565b34801561059d57600080fd5b50610265611376565b3480156105b257600080fd5b5061023b6105c13660046120c8565b611385565b3480156105d257600080fd5b5061023b6105e13660046120c8565b61141b565b3480156105f257600080fd5b50600a546102f0565b34801561060757600080fd5b506102f06103e881565b34801561061d57600080fd5b506102f060085481565b34801561063357600080fd5b5061023b61064236600461212d565b6000828152600d60209081526040808320600160a060020a038516845260030190915290205460ff1692915050565b34801561067d57600080fd5b506102f061068c366004612195565b611429565b34801561069d57600080fd5b5061021f6106ac3660046121bf565b611454565b3480156106bd57600080fd5b5061021f6106cc36600461210b565b61155a565b3480156106dd57600080fd5b5061021f6106ec36600461210b565b6116bc565b60606003805461070090612202565b80601f016020809104026020016040519081016040528092919081815260200182805461072c90612202565b80156107795780601f1061074e57610100808354040283529160200191610779565b820191906000526020600020905b81548152906001019060200180831161075c57829003601f168201915b5050505050905090565b60003361079181858561174f565b60019150505b92915050565b6107a56118ad565b600081116108235760405160e560020a62461bcd02815260206004820152602160248201527f4d7573742072657175697265206174206c656173742031207369676e6174757260448201527f650000000000000000000000000000000000000000000000000000000000000060648201526084015b60405180910390fd5b600a5481111561089e5760405160e560020a62461bcd02815260206004820152602b60248201527f43616e6e6f742072657175697265206d6f7265207369676e617475726573207460448201527f68616e207369676e657273000000000000000000000000000000000000000000606482015260840161081a565b600b55565b6108ab6118ad565b600b54600a54116109015760405160e560020a62461bcd02815260206004820152601e60248201527f43616e6e6f742072656d6f76653a20746f6f20666577207369676e6572730000604482015260640161081a565b600a5460005b600a548110156109625782600160a060020a0316600a828154811061092e5761092e61223f565b600091825260209091200154600160a060020a03160361095057809150610962565b8061095a81612271565b915050610907565b50600a5481106109b75760405160e560020a62461bcd02815260206004820152601060248201527f5369676e6572206e6f7420666f756e6400000000000000000000000000000000604482015260640161081a565b600a80546109c79060019061228a565b815481106109d7576109d761223f565b600091825260209091200154600a8054600160a060020a039092169183908110610a0357610a0361223f565b9060005260206000200160006101000a815481600160a060020a030219169083600160a060020a03160217905550600a805480610a4257610a4261229d565b6000828152602090208101600019908101805473ffffffffffffffffffffffffffffffffffffffff191690550190555050565b60003411610ac85760405160e560020a62461bcd02815260206004820152600d60248201527f4d7573742073656e642045544800000000000000000000000000000000000000604482015260640161081a565b6000670de0b6b3a7640000610adf6103e8346122b6565b610ae991906122cd565b9050621312d081610af960025490565b610b0391906122f2565b1115610b545760405160e560020a62461bcd02815260206004820152601760248201527f576f756c6420657863656564206d617820737570706c79000000000000000000604482015260640161081a565b610b5e338261190a565b604080513481526020810183905233917f8fafebcaf9d154343dad25669bfa277f4fbacd7ac6b0c4fed522580e040a0f33910160405180910390a250565b600a8181548110610bac57600080fd5b600091825260209091200154600160a060020a0316905081565b6000805b600a54811015610c265733600160a060020a0316600a8281548110610bf157610bf161223f565b600091825260209091200154600160a060020a031603610c145760019150610c26565b80610c1e81612271565b915050610bca565b5080610c775760405160e560020a62461bcd02815260206004820152601160248201527f4e6f742061207369676e206d656d626572000000000000000000000000000000604482015260640161081a565b60008311610cca5760405160e560020a62461bcd02815260206004820152601d60248201527f416d6f756e74206d7573742062652067726561746572207468616e2030000000604482015260640161081a565b600160a060020a038216610d235760405160e560020a62461bcd02815260206004820152601960248201527f496e76616c696420726563697069656e74206164647265737300000000000000604482015260640161081a565b3031831115610d775760405160e560020a62461bcd02815260206004820152601d60248201527f496e73756666696369656e7420636f6e74726163742062616c616e6365000000604482015260640161081a565b600c8054906001906000610d8b83856122f2565b90915550506000818152600d6020908152604080832087815560028101805474ffffffffffffffffffffffffffffffffffffffffff1916600160a060020a038916908117909155600180830181905533865260038301855294839020805460ff191690951790945581518881529283019390935283917faeebefaca28d3919b6f4ac09b6bc4c04fa151f0eb308e5ea8807baacef6a984d910160405180910390a260405133815282907f01abd961ac45cbdbe6ab54236ff6ada5209c871bc7a0d7428c7c85ea4f0aef829060200160405180910390a2600b54600103610e7457610e74826119cc565b5050505050565b600033610e89858285611c1d565b610e94858585611c9a565b506001949350505050565b6000610eaa60025490565b610eb790621312d061228a565b905090565b600033610791818585610ecf8383611429565b610ed991906122f2565b61174f565b60008111610f315760405160e560020a62461bcd02815260206004820152601d60248201527f416d6f756e74206d7573742062652067726561746572207468616e2030000000604482015260640161081a565b33600090815260208190526040902054811115610f935760405160e560020a62461bcd02815260206004820152601460248201527f496e73756666696369656e742062616c616e6365000000000000000000000000604482015260640161081a565b6000610fa16103e8836122cd565b90503031811115610ff75760405160e560020a62461bcd02815260206004820152601c60248201527f496e73756666696369656e742045544820696e20636f6e747261637400000000604482015260640161081a565b6110013383611e90565b604051600090339083908381818185875af1925050503d8060008114611043576040519150601f19603f3d011682016040523d82523d6000602084013e611048565b606091505b505090508061109c5760405160e560020a62461bcd02815260206004820152601360248201527f455448207472616e73666572206661696c656400000000000000000000000000604482015260640161081a565b604080518481526020810184905233917f2dcf9433d75db0d8b1c172641f85e319ffe4ad22e108a95d1847ceb906e5195d91015b60405180910390a2505050565b6110e56118ad565b6110ef6000611fff565b565b6000805b600a548110156111515733600160a060020a0316600a828154811061111c5761111c61223f565b600091825260209091200154600160a060020a03160361113f5760019150611151565b8061114981612271565b9150506110f5565b50806111a25760405160e560020a62461bcd02815260206004820152601160248201527f4e6f742061207369676e206d656d626572000000000000000000000000000000604482015260640161081a565b6000828152600d60205260409020600281015474010000000000000000000000000000000000000000900460ff16156112205760405160e560020a62461bcd02815260206004820152601b60248201527f5769746864726177616c20616c72656164792065786563757465640000000000604482015260640161081a565b33600090815260038201602052604090205460ff16156112855760405160e560020a62461bcd02815260206004820152600e60248201527f416c7265616479207369676e6564000000000000000000000000000000000000604482015260640161081a565b3360009081526003820160205260408120805460ff191660019081179091558281018054919290916112b89084906122f2565b909155505060405133815283907f01abd961ac45cbdbe6ab54236ff6ada5209c871bc7a0d7428c7c85ea4f0aef829060200160405180910390a2600b5481600101541061130857611308836119cc565b505050565b6000805b600a5481101561136d5782600160a060020a0316600a82815481106113385761133861223f565b600091825260209091200154600160a060020a03160361135b5750600192915050565b8061136581612271565b915050611311565b50600092915050565b60606004805461070090612202565b600033816113938286611429565b90508381101561140e5760405160e560020a62461bcd02815260206004820152602560248201527f45524332303a2064656372656173656420616c6c6f77616e63652062656c6f7760448201527f207a65726f000000000000000000000000000000000000000000000000000000606482015260840161081a565b610e94828686840361174f565b600033610791818585611c9a565b600160a060020a03918216600090815260016020908152604080832093909416825291909152205490565b61145c6118ad565b60095460ff16156114d85760405160e560020a62461bcd02815260206004820152602160248201527f496e697469616c20646973747269627574696f6e20616c726561647920646f6e60448201527f6500000000000000000000000000000000000000000000000000000000000000606482015260840161081a565b6114e48360065461190a565b6114f08260075461190a565b6114fc8160085461190a565b6009805460ff1916600117905560408051600160a060020a038581168252848116602083015283168183015290517f4864f7df2cd1c07972b3dbf1a98de81ddd7d784caf0078d5e5e372b219f6695c916060908290030190a1505050565b6115626118ad565b600160a060020a0381166115bb5760405160e560020a62461bcd02815260206004820152600f60248201527f496e76616c696420616464726573730000000000000000000000000000000000604482015260640161081a565b60005b600a5481101561165c5781600160a060020a0316600a82815481106115e5576115e561223f565b600091825260209091200154600160a060020a03160361164a5760405160e560020a62461bcd02815260206004820152601060248201527f416c72656164792061207369676e657200000000000000000000000000000000604482015260640161081a565b8061165481612271565b9150506115be565b50600a80546001810182556000919091527fc65a7bb8d6351c1cf70c95a316cc6a92839c986682d98bc35f958f4883f9d2a801805473ffffffffffffffffffffffffffffffffffffffff1916600160a060020a0392909216919091179055565b6116c46118ad565b600160a060020a0381166117435760405160e560020a62461bcd02815260206004820152602660248201527f4f776e61626c653a206e6577206f776e657220697320746865207a65726f206160448201527f6464726573730000000000000000000000000000000000000000000000000000606482015260840161081a565b61174c81611fff565b50565b600160a060020a0383166117cd5760405160e560020a62461bcd028152602060048201526024808201527f45524332303a20617070726f76652066726f6d20746865207a65726f2061646460448201527f7265737300000000000000000000000000000000000000000000000000000000606482015260840161081a565b600160a060020a03821661184c5760405160e560020a62461bcd02815260206004820152602260248201527f45524332303a20617070726f766520746f20746865207a65726f20616464726560448201527f7373000000000000000000000000000000000000000000000000000000000000606482015260840161081a565b600160a060020a0383811660008181526001602090815260408083209487168084529482529182902085905590518481527f8c5be1e5ebec7d5bd14f71427d1e84f3dd0314c0f7b2291e5b200ac8c7c3b925910160405180910390a3505050565b600554600160a060020a031633146110ef5760405160e560020a62461bcd02815260206004820181905260248201527f4f776e61626c653a2063616c6c6572206973206e6f7420746865206f776e6572604482015260640161081a565b600160a060020a0382166119635760405160e560020a62461bcd02815260206004820152601f60248201527f45524332303a206d696e7420746f20746865207a65726f206164647265737300604482015260640161081a565b806002600082825461197591906122f2565b9091555050600160a060020a038216600081815260208181526040808320805486019055518481527fddf252ad1be2c89b69c2b068fc378daa952ba7f163c4a11628f55a4df523b3ef910160405180910390a35050565b6000818152600d60205260409020600281015474010000000000000000000000000000000000000000900460ff1615611a4a5760405160e560020a62461bcd02815260206004820152601b60248201527f5769746864726177616c20616c72656164792065786563757465640000000000604482015260640161081a565b600b5481600101541015611aa35760405160e560020a62461bcd02815260206004820152601560248201527f4e6f7420656e6f756768207369676e6174757265730000000000000000000000604482015260640161081a565b805430311015611af85760405160e560020a62461bcd02815260206004820152601d60248201527f496e73756666696369656e7420636f6e74726163742062616c616e6365000000604482015260640161081a565b6002810180547401000000000000000000000000000000000000000074ff0000000000000000000000000000000000000000198216179091558154604051600092600160a060020a031691908381818185875af1925050503d8060008114611b7c576040519150601f19603f3d011682016040523d82523d6000602084013e611b81565b606091505b5050905080611bd55760405160e560020a62461bcd02815260206004820152601360248201527f455448207472616e73666572206661696c656400000000000000000000000000604482015260640161081a565b8154600283015460408051928352600160a060020a03909116602083015284917fec83f882a8fba4c50cbb4e88e9412913156a11e6a0733f736d136a80ad2ddcdb91016110d0565b6000611c298484611429565b90506000198114611c945781811015611c875760405160e560020a62461bcd02815260206004820152601d60248201527f45524332303a20696e73756666696369656e7420616c6c6f77616e6365000000604482015260640161081a565b611c94848484840361174f565b50505050565b600160a060020a038316611d195760405160e560020a62461bcd02815260206004820152602560248201527f45524332303a207472616e736665722066726f6d20746865207a65726f20616460448201527f6472657373000000000000000000000000000000000000000000000000000000606482015260840161081a565b600160a060020a038216611d985760405160e560020a62461bcd02815260206004820152602360248201527f45524332303a207472616e7366657220746f20746865207a65726f206164647260448201527f6573730000000000000000000000000000000000000000000000000000000000606482015260840161081a565b600160a060020a03831660009081526020819052604090205481811015611e2a5760405160e560020a62461bcd02815260206004820152602660248201527f45524332303a207472616e7366657220616d6f756e742065786365656473206260448201527f616c616e63650000000000000000000000000000000000000000000000000000606482015260840161081a565b600160a060020a03848116600081815260208181526040808320878703905593871680835291849020805487019055925185815290927fddf252ad1be2c89b69c2b068fc378daa952ba7f163c4a11628f55a4df523b3ef910160405180910390a3611c94565b600160a060020a038216611f0f5760405160e560020a62461bcd02815260206004820152602160248201527f45524332303a206275726e2066726f6d20746865207a65726f2061646472657360448201527f7300000000000000000000000000000000000000000000000000000000000000606482015260840161081a565b600160a060020a03821660009081526020819052604090205481811015611fa15760405160e560020a62461bcd02815260206004820152602260248201527f45524332303a206275726e20616d6f756e7420657863656564732062616c616e60448201527f6365000000000000000000000000000000000000000000000000000000000000606482015260840161081a565b600160a060020a0383166000818152602081815260408083208686039055600280548790039055518581529192917fddf252ad1be2c89b69c2b068fc378daa952ba7f163c4a11628f55a4df523b3ef910160405180910390a3505050565b60058054600160a060020a0383811673ffffffffffffffffffffffffffffffffffffffff19831681179093556040519116919082907f8be0079c531659141344cd1fd0a4f28419497f9722a3daafe3b4186f6b6457e090600090a35050565b600060208083528351808285015260005b8181101561208b5785810183015185820160400152820161206f565b506000604082860101526040601f19601f8301168501019250505092915050565b8035600160a060020a03811681146120c357600080fd5b919050565b600080604083850312156120db57600080fd5b6120e4836120ac565b946020939093013593505050565b60006020828403121561210457600080fd5b5035919050565b60006020828403121561211d57600080fd5b612126826120ac565b9392505050565b6000806040838503121561214057600080fd5b82359150612150602084016120ac565b90509250929050565b60008060006060848603121561216e57600080fd5b612177846120ac565b9250612185602085016120ac565b9150604084013590509250925092565b600080604083850312156121a857600080fd5b6121b1836120ac565b9150612150602084016120ac565b6000806000606084860312156121d457600080fd5b6121dd846120ac565b92506121eb602085016120ac565b91506121f9604085016120ac565b90509250925092565b60028104600182168061221657607f821691505b6020821081036122395760e060020a634e487b7102600052602260045260246000fd5b50919050565b60e060020a634e487b7102600052603260045260246000fd5b60e060020a634e487b7102600052601160045260246000fd5b60006001820161228357612283612258565b5060010190565b8181038181111561079757610797612258565b60e060020a634e487b7102600052603160045260246000fd5b808202811582820484141761079757610797612258565b6000826122ed5760e060020a634e487b7102600052601260045260246000fd5b500490565b808201808211156107975761079761225856fea2646970667358221220fe4b19026f58570db20e278fb0fb8128aa6163d96a2e2cb4d55d16a999b1013564736f6c63430008140033",
  "immutableReferences": {},
  "source": "// SPDX-License-Identifier: MIT\r\npragma solidity ^0.8.20;\r\n\r\n//  OpenZeppelin  ERC20 \r\nimport \"@openzeppelin/contracts/token/ERC20/ERC20.sol\";\r\n//  OpenZeppelin \r\nimport \"@openzeppelin/contracts/access/Ownable.sol\";\r\n\r\n// YiDengToken  ERC20  Ownable\r\ncontract YiDengToken is ERC20, Ownable {\r\n    //  ETH  YD 1 ETH = 1000 YD\r\n    uint256 public constant TOKENS_PER_ETH = 1000;\r\n    // 125 YD 18 \r\n    uint256 public constant MAX_SUPPLY = 1250000;\r\n\r\n    // 20% = 25 YD\r\n    uint256 public teamAllocation;\r\n    // 10% = 12.5 YD\r\n    uint256 public marketingAllocation;\r\n    // 10% = 12.5 YD\r\n    uint256 public communityAllocation;\r\n    //  60% = 75 YD \r\n\r\n    // \r\n    bool public initialDistributionDone;\r\n    function decimals() public view virtual override returns (uint8) {\r\n        return 0;\r\n    }\r\n    \r\n    // \r\n    address[] public signers;               // \r\n    uint256 public requiredSignatures;      // \r\n    uint256 public withdrawalId;            // ID\r\n    \r\n    // \r\n    struct WithdrawalRequest {\r\n        uint256 amount;                     // \r\n        uint256 signatureCount;             // \r\n        address recipient;                  // \r\n        bool executed;                      // \r\n        mapping(address => bool) signatures;// \r\n    }\r\n    \r\n    // \r\n    mapping(uint256 => WithdrawalRequest) public withdrawalRequests;\r\n    \r\n    // \r\n    event WithdrawalRequested(uint256 indexed withdrawalId, uint256 amount, address recipient);\r\n    event WithdrawalSigned(uint256 indexed withdrawalId, address signer);\r\n    event WithdrawalExecuted(uint256 indexed withdrawalId, uint256 amount, address recipient);\r\n    \r\n    // \r\n    event TokensPurchased(\r\n        address indexed buyer,\r\n        uint256 ethAmount,\r\n        uint256 tokenAmount\r\n    );\r\n    event TokensSold(\r\n        address indexed seller,\r\n        uint256 tokenAmount,\r\n        uint256 ethAmount\r\n    );\r\n    event InitialDistributionCompleted(\r\n        address teamWallet,\r\n        address marketingWallet,\r\n        address communityWallet\r\n    );\r\n\r\n    //  \"YiDeng Token\" \"YD\"\r\n    constructor() ERC20(\"YiDeng Token\", \"YD\") Ownable() {\r\n        // \r\n        teamAllocation = (MAX_SUPPLY * 20) / 100; // 20% \r\n        marketingAllocation = (MAX_SUPPLY * 10) / 100; // 10% \r\n        communityAllocation = (MAX_SUPPLY * 10) / 100; // 10% \r\n        \r\n        // \r\n        signers.push(msg.sender);\r\n        requiredSignatures = 1;\r\n    }\r\n\r\n    // \r\n    function distributeInitialTokens(\r\n        address teamWallet, // \r\n        address marketingWallet, // \r\n        address communityWallet // \r\n    ) external onlyOwner {\r\n        require(!initialDistributionDone, \"Initial distribution already done\");\r\n\r\n        _mint(teamWallet, teamAllocation); // \r\n        _mint(marketingWallet, marketingAllocation); // \r\n        _mint(communityWallet, communityAllocation); // \r\n\r\n        initialDistributionDone = true;\r\n        emit InitialDistributionCompleted(\r\n            teamWallet,\r\n            marketingWallet,\r\n            communityWallet\r\n        );\r\n    }\r\n\r\n    //  ETH  YD \r\n    function buyWithETH() external payable {\r\n        require(msg.value > 0, \"Must send ETH\");\r\n\r\n        uint256 tokenAmount = (msg.value * TOKENS_PER_ETH) / 1 ether;\r\n        require(\r\n            totalSupply() + tokenAmount <= MAX_SUPPLY,\r\n            \"Would exceed max supply\"\r\n        );\r\n\r\n        _mint(msg.sender, tokenAmount);\r\n        emit TokensPurchased(msg.sender, msg.value, tokenAmount);\r\n    }\r\n\r\n    /**\r\n     * @notice YiDengETH\r\n     * @param tokenAmount \r\n     */\r\n    function sellTokens(uint256 tokenAmount) external {\r\n        require(tokenAmount > 0, \"Amount must be greater than 0\");\r\n        require(balanceOf(msg.sender) >= tokenAmount, \"Insufficient balance\");\r\n\r\n        // ETH\r\n        uint256 ethAmount = tokenAmount / TOKENS_PER_ETH;\r\n        require(\r\n            address(this).balance >= ethAmount,\r\n            \"Insufficient ETH in contract\"\r\n        );\r\n\r\n        // \r\n        _burn(msg.sender, tokenAmount);\r\n\r\n        // ETH\r\n        (bool success, ) = payable(msg.sender).call{value: ethAmount}(\"\");\r\n        require(success, \"ETH transfer failed\");\r\n\r\n        emit TokensSold(msg.sender, tokenAmount, ethAmount);\r\n    }\r\n\r\n    // \r\n    function remainingMintableSupply() public view returns (uint256) {\r\n        return MAX_SUPPLY - totalSupply();\r\n    }\r\n\r\n    //  ----------------------------------------\r\n    \r\n    // \r\n    modifier onlyMultiSigner() {\r\n        bool isMember = false;\r\n        for (uint i = 0; i < signers.length; i++) {\r\n            if (signers[i] == msg.sender) {\r\n                isMember = true;\r\n                break;\r\n            }\r\n        }\r\n        require(isMember, \"Not a sign member\");\r\n        _;\r\n    }\r\n    \r\n    // \r\n    function addSigner(address newSigner) external onlyOwner {\r\n        require(newSigner != address(0), \"Invalid address\");\r\n        \r\n        // \r\n        for (uint i = 0; i < signers.length; i++) {\r\n            require(signers[i] != newSigner, \"Already a signer\");\r\n        }\r\n        \r\n        signers.push(newSigner);\r\n    }\r\n    \r\n    // \r\n    function removeSigner(address signerToRemove) external onlyOwner {\r\n        require(signers.length > requiredSignatures, \"Cannot remove: too few signers\");\r\n        \r\n        uint indexToRemove = signers.length;\r\n        for (uint i = 0; i < signers.length; i++) {\r\n            if (signers[i] == signerToRemove) {\r\n                indexToRemove = i;\r\n                break;\r\n            }\r\n        }\r\n        \r\n        require(indexToRemove < signers.length, \"Signer not found\");\r\n        \r\n        // \r\n        signers[indexToRemove] = signers[signers.length - 1];\r\n        signers.pop();\r\n    }\r\n    \r\n    // \r\n    function updateRequiredSignatures(uint256 newRequiredSignatures) external onlyOwner {\r\n        require(newRequiredSignatures > 0, \"Must require at least 1 signature\");\r\n        require(newRequiredSignatures <= signers.length, \"Cannot require more signatures than signers\");\r\n        \r\n        requiredSignatures = newRequiredSignatures;\r\n    }\r\n    \r\n    // \r\n    function requestWithdrawal(uint256 amount, address recipient) external onlyMultiSigner {\r\n        require(amount > 0, \"Amount must be greater than 0\");\r\n        require(recipient != address(0), \"Invalid recipient address\");\r\n        require(address(this).balance >= amount, \"Insufficient contract balance\");\r\n        \r\n        uint256 requestId = withdrawalId;\r\n        withdrawalId += 1;\r\n        \r\n        WithdrawalRequest storage request = withdrawalRequests[requestId];\r\n        request.amount = amount;\r\n        request.recipient = recipient;\r\n        request.executed = false;\r\n        request.signatureCount = 1;  // \r\n        request.signatures[msg.sender] = true;\r\n        \r\n        emit WithdrawalRequested(requestId, amount, recipient);\r\n        emit WithdrawalSigned(requestId, msg.sender);\r\n        \r\n        // \r\n        if (requiredSignatures == 1) {\r\n            executeWithdrawal(requestId);\r\n        }\r\n    }\r\n    \r\n    // \r\n    function signWithdrawal(uint256 requestId) external onlyMultiSigner {\r\n        WithdrawalRequest storage request = withdrawalRequests[requestId];\r\n        \r\n        require(!request.executed, \"Withdrawal already executed\");\r\n        require(!request.signatures[msg.sender], \"Already signed\");\r\n        \r\n        request.signatures[msg.sender] = true;\r\n        request.signatureCount += 1;\r\n        \r\n        emit WithdrawalSigned(requestId, msg.sender);\r\n        \r\n        // \r\n        if (request.signatureCount >= requiredSignatures) {\r\n            executeWithdrawal(requestId);\r\n        }\r\n    }\r\n    \r\n    // \r\n    function executeWithdrawal(uint256 requestId) internal {\r\n        WithdrawalRequest storage request = withdrawalRequests[requestId];\r\n        \r\n        require(!request.executed, \"Withdrawal already executed\");\r\n        require(request.signatureCount >= requiredSignatures, \"Not enough signatures\");\r\n        require(address(this).balance >= request.amount, \"Insufficient contract balance\");\r\n        \r\n        request.executed = true;\r\n        \r\n        (bool success, ) = request.recipient.call{value: request.amount}(\"\");\r\n        require(success, \"ETH transfer failed\");\r\n        \r\n        emit WithdrawalExecuted(requestId, request.amount, request.recipient);\r\n    }\r\n    \r\n    // \r\n    function getSignerCount() external view returns (uint256) {\r\n        return signers.length;\r\n    }\r\n    \r\n    // \r\n    function isSigner(address account) external view returns (bool) {\r\n        for (uint i = 0; i < signers.length; i++) {\r\n            if (signers[i] == account) {\r\n                return true;\r\n            }\r\n        }\r\n        return false;\r\n    }\r\n    \r\n    // \r\n    function hasSignedWithdrawal(uint256 requestId, address signer) external view returns (bool) {\r\n        return withdrawalRequests[requestId].signatures[signer];\r\n    }\r\n\r\n    // ETH\r\n    receive() external payable {}\r\n\r\n    // ETH\r\n    fallback() external payable {}\r\n}",
  "sourcePath": "D:\\project\\DApp\\web3\\web3-university-contract-local\\contracts\\YiDengToken.sol",
  "compiler": {
    "name": "solc",
    "version": "0.8.20+commit.a1b79de6.Emscripten.clang"
  },
  "schemaVersion": "3.4.16",
  "updatedAt": "2025-04-01T09:16:52.806Z",
  "networkType": "ethereum",
  "devdoc": {
    "events": {
      "Approval(address,address,uint256)": {
        "details": "Emitted when the allowance of a `spender` for an `owner` is set by a call to {approve}. `value` is the new allowance."
      },
      "Transfer(address,address,uint256)": {
        "details": "Emitted when `value` tokens are moved from one account (`from`) to another (`to`). Note that `value` may be zero."
      }
    },
    "kind": "dev",
    "methods": {
      "allowance(address,address)": {
        "details": "See {IERC20-allowance}."
      },
      "approve(address,uint256)": {
        "details": "See {IERC20-approve}. NOTE: If `amount` is the maximum `uint256`, the allowance is not updated on `transferFrom`. This is semantically equivalent to an infinite approval. Requirements: - `spender` cannot be the zero address."
      },
      "balanceOf(address)": {
        "details": "See {IERC20-balanceOf}."
      },
      "decimals()": {
        "details": "Returns the number of decimals used to get its user representation. For example, if `decimals` equals `2`, a balance of `505` tokens should be displayed to a user as `5.05` (`505 / 10 ** 2`). Tokens usually opt for a value of 18, imitating the relationship between Ether and Wei. This is the default value returned by this function, unless it's overridden. NOTE: This information is only used for _display_ purposes: it in no way affects any of the arithmetic of the contract, including {IERC20-balanceOf} and {IERC20-transfer}."
      },
      "decreaseAllowance(address,uint256)": {
        "details": "Atomically decreases the allowance granted to `spender` by the caller. This is an alternative to {approve} that can be used as a mitigation for problems described in {IERC20-approve}. Emits an {Approval} event indicating the updated allowance. Requirements: - `spender` cannot be the zero address. - `spender` must have allowance for the caller of at least `subtractedValue`."
      },
      "increaseAllowance(address,uint256)": {
        "details": "Atomically increases the allowance granted to `spender` by the caller. This is an alternative to {approve} that can be used as a mitigation for problems described in {IERC20-approve}. Emits an {Approval} event indicating the updated allowance. Requirements: - `spender` cannot be the zero address."
      },
      "name()": {
        "details": "Returns the name of the token."
      },
      "owner()": {
        "details": "Returns the address of the current owner."
      },
      "renounceOwnership()": {
        "details": "Leaves the contract without owner. It will not be possible to call `onlyOwner` functions. Can only be called by the current owner. NOTE: Renouncing ownership will leave the contract without an owner, thereby disabling any functionality that is only available to the owner."
      },
      "sellTokens(uint256)": {
        "params": {
          "tokenAmount": ""
        }
      },
      "symbol()": {
        "details": "Returns the symbol of the token, usually a shorter version of the name."
      },
      "totalSupply()": {
        "details": "See {IERC20-totalSupply}."
      },
      "transfer(address,uint256)": {
        "details": "See {IERC20-transfer}. Requirements: - `to` cannot be the zero address. - the caller must have a balance of at least `amount`."
      },
      "transferFrom(address,address,uint256)": {
        "details": "See {IERC20-transferFrom}. Emits an {Approval} event indicating the updated allowance. This is not required by the EIP. See the note at the beginning of {ERC20}. NOTE: Does not update the allowance if the current allowance is the maximum `uint256`. Requirements: - `from` and `to` cannot be the zero address. - `from` must have a balance of at least `amount`. - the caller must have allowance for ``from``'s tokens of at least `amount`."
      },
      "transferOwnership(address)": {
        "details": "Transfers ownership of the contract to a new account (`newOwner`). Can only be called by the current owner."
      }
    },
    "version": 1
  },
  "userdoc": {
    "kind": "user",
    "methods": {
      "sellTokens(uint256)": {
        "notice": "YiDengETH"
      }
    },
    "version": 1
  }
}